{
  "_format": "hh-sol-artifact-1",
  "contractName": "ServiceProvider",
  "sourceName": "contracts/ServiceProvider.sol",
  "abi": [
    {
      "inputs": [
        {
          "internalType": "address",
          "name": "_verifier",
          "type": "address"
        },
        {
          "internalType": "address",
          "name": "_manager",
          "type": "address"
        }
      ],
      "stateMutability": "nonpayable",
      "type": "constructor"
    },
    {
      "inputs": [],
      "name": "ServiceProvider__AlreadyRegistered",
      "type": "error"
    },
    {
      "inputs": [],
      "name": "ServiceProvider__FeeTransferFailed",
      "type": "error"
    },
    {
      "inputs": [],
      "name": "ServiceProvider__GroupDoesNotExist",
      "type": "error"
    },
    {
      "inputs": [],
      "name": "ServiceProvider__InsufficientFee",
      "type": "error"
    },
    {
      "inputs": [],
      "name": "ServiceProvider__InsufficientSponsorFeeBalance",
      "type": "error"
    },
    {
      "inputs": [],
      "name": "ServiceProvider__InsufficientSponsorFundsForWithdrawal",
      "type": "error"
    },
    {
      "inputs": [],
      "name": "ServiceProvider__InvalidMerkleTreeDepth",
      "type": "error"
    },
    {
      "inputs": [],
      "name": "ServiceProvider__InvalidProof",
      "type": "error"
    },
    {
      "inputs": [],
      "name": "ServiceProvider__InvalidTreeRoot",
      "type": "error"
    },
    {
      "inputs": [],
      "name": "ServiceProvider__ManagerAlreadyApproved",
      "type": "error"
    },
    {
      "inputs": [],
      "name": "ServiceProvider__ManagerNotApproved",
      "type": "error"
    },
    {
      "inputs": [],
      "name": "ServiceProvider__NotRegistered",
      "type": "error"
    },
    {
      "inputs": [],
      "name": "ServiceProvider__NullifierAlreadyUsed",
      "type": "error"
    },
    {
      "inputs": [],
      "name": "ServiceProvider__WithdrawSponsorFundsFailed",
      "type": "error"
    },
    {
      "anonymous": false,
      "inputs": [
        {
          "indexed": true,
          "internalType": "uint256",
          "name": "groupId",
          "type": "uint256"
        },
        {
          "indexed": true,
          "internalType": "uint256",
          "name": "merkleTreeDepth",
          "type": "uint256"
        },
        {
          "indexed": true,
          "internalType": "uint256",
          "name": "merkleTreeRoot",
          "type": "uint256"
        },
        {
          "indexed": false,
          "internalType": "uint256",
          "name": "nullifier",
          "type": "uint256"
        },
        {
          "indexed": false,
          "internalType": "uint256",
          "name": "message",
          "type": "uint256"
        },
        {
          "indexed": false,
          "internalType": "uint256",
          "name": "scope",
          "type": "uint256"
        },
        {
          "indexed": false,
          "internalType": "uint256[8]",
          "name": "points",
          "type": "uint256[8]"
        }
      ],
      "name": "AccountVerified",
      "type": "event"
    },
    {
      "anonymous": false,
      "inputs": [
        {
          "indexed": true,
          "internalType": "address",
          "name": "serviceProvider",
          "type": "address"
        },
        {
          "indexed": true,
          "internalType": "uint256",
          "name": "groupId",
          "type": "uint256"
        }
      ],
      "name": "ManagerApproved",
      "type": "event"
    },
    {
      "anonymous": false,
      "inputs": [
        {
          "indexed": true,
          "internalType": "uint256",
          "name": "serviceProviderId",
          "type": "uint256"
        },
        {
          "indexed": true,
          "internalType": "address",
          "name": "serviceProvider",
          "type": "address"
        }
      ],
      "name": "ServiceProviderRegistered",
      "type": "event"
    },
    {
      "anonymous": false,
      "inputs": [
        {
          "indexed": true,
          "internalType": "address",
          "name": "serviceProvider",
          "type": "address"
        },
        {
          "indexed": false,
          "internalType": "uint256",
          "name": "previousBalance",
          "type": "uint256"
        },
        {
          "indexed": false,
          "internalType": "uint256",
          "name": "newBalance",
          "type": "uint256"
        },
        {
          "indexed": false,
          "internalType": "enum IServiceProvider.SponsorFeeAction",
          "name": "action",
          "type": "uint8"
        }
      ],
      "name": "SponsorFeeBalanceChanged",
      "type": "event"
    },
    {
      "inputs": [
        {
          "internalType": "uint256",
          "name": "groupId",
          "type": "uint256"
        },
        {
          "components": [
            {
              "internalType": "uint256",
              "name": "merkleTreeDepth",
              "type": "uint256"
            },
            {
              "internalType": "uint256",
              "name": "merkleTreeRoot",
              "type": "uint256"
            },
            {
              "internalType": "uint256",
              "name": "nullifier",
              "type": "uint256"
            },
            {
              "internalType": "uint256",
              "name": "message",
              "type": "uint256"
            },
            {
              "internalType": "uint256",
              "name": "scope",
              "type": "uint256"
            },
            {
              "internalType": "uint256[8]",
              "name": "points",
              "type": "uint256[8]"
            }
          ],
          "internalType": "struct IServiceProvider.SemaphoreProof",
          "name": "proof",
          "type": "tuple"
        }
      ],
      "name": "checkProof",
      "outputs": [
        {
          "internalType": "bool",
          "name": "",
          "type": "bool"
        }
      ],
      "stateMutability": "view",
      "type": "function"
    },
    {
      "inputs": [],
      "name": "depositSponsorFunds",
      "outputs": [],
      "stateMutability": "payable",
      "type": "function"
    },
    {
      "inputs": [
        {
          "internalType": "address",
          "name": "provider",
          "type": "address"
        }
      ],
      "name": "getServiceProviderId",
      "outputs": [
        {
          "internalType": "uint256",
          "name": "",
          "type": "uint256"
        }
      ],
      "stateMutability": "view",
      "type": "function"
    },
    {
      "inputs": [
        {
          "internalType": "address",
          "name": "serviceProvider",
          "type": "address"
        }
      ],
      "name": "getSponsorFeeBalance",
      "outputs": [
        {
          "internalType": "uint256",
          "name": "",
          "type": "uint256"
        }
      ],
      "stateMutability": "view",
      "type": "function"
    },
    {
      "inputs": [
        {
          "internalType": "address",
          "name": "provider",
          "type": "address"
        },
        {
          "internalType": "uint256",
          "name": "managerId",
          "type": "uint256"
        }
      ],
      "name": "isApprovedManager",
      "outputs": [
        {
          "internalType": "bool",
          "name": "",
          "type": "bool"
        }
      ],
      "stateMutability": "view",
      "type": "function"
    },
    {
      "inputs": [
        {
          "internalType": "uint256",
          "name": "serviceProviderId",
          "type": "uint256"
        },
        {
          "internalType": "uint256",
          "name": "managerId",
          "type": "uint256"
        }
      ],
      "name": "isApprovedManagerById",
      "outputs": [
        {
          "internalType": "bool",
          "name": "",
          "type": "bool"
        }
      ],
      "stateMutability": "view",
      "type": "function"
    },
    {
      "inputs": [
        {
          "internalType": "address",
          "name": "provider",
          "type": "address"
        }
      ],
      "name": "isRegistered",
      "outputs": [
        {
          "internalType": "bool",
          "name": "",
          "type": "bool"
        }
      ],
      "stateMutability": "view",
      "type": "function"
    },
    {
      "inputs": [],
      "name": "manager",
      "outputs": [
        {
          "internalType": "contract IManager",
          "name": "",
          "type": "address"
        }
      ],
      "stateMutability": "view",
      "type": "function"
    },
    {
      "inputs": [
        {
          "internalType": "uint256",
          "name": "groupId",
          "type": "uint256"
        },
        {
          "internalType": "uint256",
          "name": "nullifier",
          "type": "uint256"
        }
      ],
      "name": "nullifiers",
      "outputs": [
        {
          "internalType": "bool",
          "name": "used",
          "type": "bool"
        }
      ],
      "stateMutability": "view",
      "type": "function"
    },
    {
      "inputs": [],
      "name": "register",
      "outputs": [
        {
          "internalType": "uint256",
          "name": "serviceProviderId",
          "type": "uint256"
        }
      ],
      "stateMutability": "nonpayable",
      "type": "function"
    },
    {
      "inputs": [
        {
          "internalType": "uint256",
          "name": "managerId",
          "type": "uint256"
        }
      ],
      "name": "removeApprovedManager",
      "outputs": [],
      "stateMutability": "nonpayable",
      "type": "function"
    },
    {
      "inputs": [
        {
          "internalType": "uint256",
          "name": "serviceProviderId",
          "type": "uint256"
        }
      ],
      "name": "serviceProviderAddresses",
      "outputs": [
        {
          "internalType": "address",
          "name": "provider",
          "type": "address"
        }
      ],
      "stateMutability": "view",
      "type": "function"
    },
    {
      "inputs": [],
      "name": "serviceProviderCounter",
      "outputs": [
        {
          "internalType": "uint256",
          "name": "",
          "type": "uint256"
        }
      ],
      "stateMutability": "view",
      "type": "function"
    },
    {
      "inputs": [
        {
          "internalType": "uint256",
          "name": "groupId",
          "type": "uint256"
        }
      ],
      "name": "setApprovedManager",
      "outputs": [],
      "stateMutability": "payable",
      "type": "function"
    },
    {
      "inputs": [
        {
          "internalType": "uint256",
          "name": "serviceProviderId",
          "type": "uint256"
        },
        {
          "internalType": "uint256",
          "name": "accountId",
          "type": "uint256"
        }
      ],
      "name": "verifiedAccounts",
      "outputs": [
        {
          "internalType": "bool",
          "name": "isVerified",
          "type": "bool"
        }
      ],
      "stateMutability": "view",
      "type": "function"
    },
    {
      "inputs": [],
      "name": "verifier",
      "outputs": [
        {
          "internalType": "contract ISemaphoreVerifier",
          "name": "",
          "type": "address"
        }
      ],
      "stateMutability": "view",
      "type": "function"
    },
    {
      "inputs": [
        {
          "internalType": "uint256",
          "name": "groupId",
          "type": "uint256"
        },
        {
          "components": [
            {
              "internalType": "uint256",
              "name": "merkleTreeDepth",
              "type": "uint256"
            },
            {
              "internalType": "uint256",
              "name": "merkleTreeRoot",
              "type": "uint256"
            },
            {
              "internalType": "uint256",
              "name": "nullifier",
              "type": "uint256"
            },
            {
              "internalType": "uint256",
              "name": "message",
              "type": "uint256"
            },
            {
              "internalType": "uint256",
              "name": "scope",
              "type": "uint256"
            },
            {
              "internalType": "uint256[8]",
              "name": "points",
              "type": "uint256[8]"
            }
          ],
          "internalType": "struct IServiceProvider.SemaphoreProof",
          "name": "proof",
          "type": "tuple"
        }
      ],
      "name": "verifyAccount",
      "outputs": [],
      "stateMutability": "nonpayable",
      "type": "function"
    },
    {
      "inputs": [
        {
          "internalType": "uint256",
          "name": "amount",
          "type": "uint256"
        }
      ],
      "name": "withdrawSponsorFunds",
      "outputs": [],
      "stateMutability": "nonpayable",
      "type": "function"
    }
  ],
  "bytecode": "0x61010060405234801561001157600080fd5b506040516132ad3803806132ad83398181016040528101906100339190610463565b610042466100d660201b60201c565b151560808115158152505061005c466103d560201b60201c565b151560a0811515815250508173ffffffffffffffffffffffffffffffffffffffff1660c08173ffffffffffffffffffffffffffffffffffffffff16815250508073ffffffffffffffffffffffffffffffffffffffff1660e08173ffffffffffffffffffffffffffffffffffffffff168152505050506104a3565b600060018214806100e75750600a82145b806100f25750601982145b806100fd5750601e82145b806101085750603882145b806101135750606482145b8061011e5750606d82145b806101295750608982145b80610134575060b782145b8061013f575060e982145b8061014a575060fa82145b80610156575061013a82145b80610162575061044082145b8061016e575061044d82145b8061017a575061046f82145b80610186575061050482145b80610192575061050582145b8061019e57506106c182145b806101aa575061072582145b806101b6575061072982145b806101c257506107f782145b806101ce5750610ec082145b806101da575061106a82145b806101e657506118fe82145b806101f2575061210582145b806101fe57506127d882145b8061020a575061473782145b80610216575061473982145b8061022257506162ef82145b8061022e575061868b82145b8061023a575061a1ef82145b80610246575061a45582145b80610252575061a4b182145b8061025e575061a86a82145b8061026a575061e70882145b8061027757506201388282145b806102845750620138d482145b80610291575062013e3182145b8061029e575062014a3482145b806102ab57506201b25482145b806102b857506203ade082145b806102c5575062066eee82145b806102d25750620a045c82145b806102df575062133e4082145b806102ec5750625c235982145b806102f957506276adf182145b80610306575062aa36a782145b80610313575062aa37dc82145b8061032157506301bf493382145b8061032f5750630426e64982145b8061033d5750630553507282145b8061034b575063059d713182145b80610359575063075b3dcf82145b806103675750630a0c71fd82145b806103755750630d3b745e82145b806103835750633b4c8eb982145b806103915750635241524982145b8061039f575063bc1392a682145b806103ae57506412dbe9140282145b806103bd57506414865d0f0582145b156103cb57600190506103d0565b600090505b919050565b60006101448214806103e8575061011882145b156103f657600190506103fb565b600090505b919050565b600080fd5b600073ffffffffffffffffffffffffffffffffffffffff82169050919050565b600061043082610405565b9050919050565b61044081610425565b811461044b57600080fd5b50565b60008151905061045d81610437565b92915050565b6000806040838503121561047a57610479610400565b5b60006104888582860161044e565b92505060206104998582860161044e565b9150509250929050565b60805160a05160c05160e051612dae6104ff6000396000818161095b01528181610b5301528181610c3f0152818161166001526117380152600081816105ba0152610dc1015260006119d701526000611a470152612dae6000f3fe6080604052600436106101095760003560e01c8063888da41011610095578063d5cb5f3b11610064578063d5cb5f3b146103b5578063ef9244c2146103bf578063efdcd2de146103db578063f03d5cc714610418578063fb155e891461044357610109565b8063888da410146102d5578063a67a4cbb14610312578063c3c5a5471461034f578063c920507b1461038c57610109565b806346a7190c116100dc57806346a7190c146101ca578063481c6a75146102075780634bd10c66146102325780635146a7751461026f57806378d3915c1461029857610109565b80631aa3a0081461010e5780632b7ac3f31461013957806332d8bd30146101645780633a3d75fc146101a1575b600080fd5b34801561011a57600080fd5b50610123610480565b6040516101309190612052565b60405180910390f35b34801561014557600080fd5b5061014e6105b8565b60405161015b91906120ec565b60405180910390f35b34801561017057600080fd5b5061018b60048036038101906101869190612138565b6105dc565b6040516101989190612193565b60405180910390f35b3480156101ad57600080fd5b506101c860048036038101906101c391906121ae565b61067a565b005b3480156101d657600080fd5b506101f160048036038101906101ec9190612219565b61090d565b6040516101fe9190612052565b60405180910390f35b34801561021357600080fd5b5061021c610959565b6040516102299190612267565b60405180910390f35b34801561023e57600080fd5b5061025960048036038101906102549190612219565b61097d565b6040516102669190612052565b60405180910390f35b34801561027b57600080fd5b50610296600480360381019061029191906121ae565b6109c9565b005b3480156102a457600080fd5b506102bf60048036038101906102ba9190612138565b610ab4565b6040516102cc9190612193565b60405180910390f35b3480156102e157600080fd5b506102fc60048036038101906102f791906122a7565b610ae3565b6040516103099190612193565b60405180910390f35b34801561031e57600080fd5b50610339600480360381019061033491906122e8565b610fe9565b6040516103469190612193565b60405180910390f35b34801561035b57600080fd5b5061037660048036038101906103719190612219565b611054565b6040516103839190612193565b60405180910390f35b34801561039857600080fd5b506103b360048036038101906103ae91906122a7565b6110a3565b005b6103bd611394565b005b6103d960048036038101906103d491906121ae565b611548565b005b3480156103e757600080fd5b5061040260048036038101906103fd9190612138565b611934565b60405161040f9190612193565b60405180910390f35b34801561042457600080fd5b5061042d611963565b60405161043a9190612052565b60405180910390f35b34801561044f57600080fd5b5061046a600480360381019061046591906121ae565b611969565b6040516104779190612337565b60405180910390f35b600061048b33611054565b156104c2576040517feb56e80800000000000000000000000000000000000000000000000000000000815260040160405180910390fd5b60008081546104d090612381565b919050819055905080600160003373ffffffffffffffffffffffffffffffffffffffff1673ffffffffffffffffffffffffffffffffffffffff16815260200190815260200160002060000181905550336002600083815260200190815260200160002060006101000a81548173ffffffffffffffffffffffffffffffffffffffff021916908373ffffffffffffffffffffffffffffffffffffffff1602179055503373ffffffffffffffffffffffffffffffffffffffff16817fbac49a713288ea78b9a5bc5d3851eeb27f29c68b5165d15f1700c6950b36e7f360405160405180910390a390565b7f000000000000000000000000000000000000000000000000000000000000000081565b6000600160006002600086815260200190815260200160002060009054906101000a900473ffffffffffffffffffffffffffffffffffffffff1673ffffffffffffffffffffffffffffffffffffffff1673ffffffffffffffffffffffffffffffffffffffff168152602001908152602001600020600101600083815260200190815260200160002060009054906101000a900460ff16905092915050565b6000600160003373ffffffffffffffffffffffffffffffffffffffff1673ffffffffffffffffffffffffffffffffffffffff16815260200190815260200160002060000154036106f6576040517ffa43867800000000000000000000000000000000000000000000000000000000815260040160405180910390fd5b6000600160003373ffffffffffffffffffffffffffffffffffffffff1673ffffffffffffffffffffffffffffffffffffffff16815260200190815260200160002060020154905080821115610777576040517f6675ff1700000000000000000000000000000000000000000000000000000000815260040160405180910390fd5b81600160003373ffffffffffffffffffffffffffffffffffffffff1673ffffffffffffffffffffffffffffffffffffffff16815260200190815260200160002060020160008282546107c991906123c9565b9250508190555060003373ffffffffffffffffffffffffffffffffffffffff16836040516107f69061242e565b60006040518083038185875af1925050503d8060008114610833576040519150601f19603f3d011682016040523d82523d6000602084013e610838565b606091505b5050905080610873576040517f35f0b06c00000000000000000000000000000000000000000000000000000000815260040160405180910390fd5b3373ffffffffffffffffffffffffffffffffffffffff167f6db3d7f5d4e23613f5171119dd42f2d08d091f647b3138e2c4dc4586f843ceda83600160003373ffffffffffffffffffffffffffffffffffffffff1673ffffffffffffffffffffffffffffffffffffffff168152602001908152602001600020600201546001604051610900939291906124ba565b60405180910390a2505050565b6000600160008373ffffffffffffffffffffffffffffffffffffffff1673ffffffffffffffffffffffffffffffffffffffff168152602001908152602001600020600001549050919050565b7f000000000000000000000000000000000000000000000000000000000000000081565b6000600160008373ffffffffffffffffffffffffffffffffffffffff1673ffffffffffffffffffffffffffffffffffffffff168152602001908152602001600020600201549050919050565b6000600160003373ffffffffffffffffffffffffffffffffffffffff1673ffffffffffffffffffffffffffffffffffffffff1681526020019081526020016000206000015403610a45576040517ffa43867800000000000000000000000000000000000000000000000000000000815260040160405180910390fd5b6000600160003373ffffffffffffffffffffffffffffffffffffffff1673ffffffffffffffffffffffffffffffffffffffff168152602001908152602001600020600101600083815260200190815260200160002060006101000a81548160ff02191690831515021790555050565b60036020528160005260406000206020528060005260406000206000915091509054906101000a900460ff1681565b6000600160ff1682600001351080610b025750602060ff168260000135115b15610b39576040517fc2196fdc00000000000000000000000000000000000000000000000000000000815260040160405180910390fd5b600073ffffffffffffffffffffffffffffffffffffffff167f000000000000000000000000000000000000000000000000000000000000000073ffffffffffffffffffffffffffffffffffffffff1663aac80472856040518263ffffffff1660e01b8152600401610baa9190612052565b602060405180830381865afa158015610bc7573d6000803e3d6000fd5b505050506040513d601f19601f82011682018060405250810190610beb9190612506565b73ffffffffffffffffffffffffffffffffffffffff1603610c38576040517f3e807fee00000000000000000000000000000000000000000000000000000000815260040160405180910390fd5b81602001357f000000000000000000000000000000000000000000000000000000000000000073ffffffffffffffffffffffffffffffffffffffff1663dabc4d51856040518263ffffffff1660e01b8152600401610c969190612052565b602060405180830381865afa158015610cb3573d6000803e3d6000fd5b505050506040513d601f19601f82011682018060405250810190610cd79190612548565b14610d0e576040517f68acbc1800000000000000000000000000000000000000000000000000000000815260040160405180910390fd5b610d1c8260800135846105dc565b610d52576040517f1857f85900000000000000000000000000000000000000000000000000000000815260040160405180910390fd5b6003600084815260200190815260200160002060008360400135815260200190815260200160002060009054906101000a900460ff1615610dbf576040517fb7d74ffd00000000000000000000000000000000000000000000000000000000815260040160405180910390fd5b7f000000000000000000000000000000000000000000000000000000000000000073ffffffffffffffffffffffffffffffffffffffff1663a23f019960405180604001604052808560a001600060088110610e1d57610e1c612575565b5b602002013581526020018560a001600160088110610e3e57610e3d612575565b5b6020020135815250604051806040016040528060405180604001604052808860a001600260088110610e7357610e72612575565b5b602002013581526020018860a001600360088110610e9457610e93612575565b5b6020020135815250815260200160405180604001604052808860a001600460088110610ec357610ec2612575565b5b602002013581526020018860a001600560088110610ee457610ee3612575565b5b602002013581525081525060405180604001604052808760a001600660088110610f1157610f10612575565b5b602002013581526020018760a001600760088110610f3257610f31612575565b5b602002013581525060405180608001604052808860200135815260200188604001358152602001610f66896060013561199c565b8152602001610f78896080013561199c565b81525087600001356040518663ffffffff1660e01b8152600401610fa09594939291906127d1565b602060405180830381865afa158015610fbd573d6000803e3d6000fd5b505050506040513d601f19601f82011682018060405250810190610fe19190612853565b905092915050565b6000600160008473ffffffffffffffffffffffffffffffffffffffff1673ffffffffffffffffffffffffffffffffffffffff168152602001908152602001600020600101600083815260200190815260200160002060009054906101000a900460ff16905092915050565b600080600160008473ffffffffffffffffffffffffffffffffffffffff1673ffffffffffffffffffffffffffffffffffffffff1681526020019081526020016000206000015414159050919050565b6110ac336119d3565b6110eb576040517f08c379a00000000000000000000000000000000000000000000000000000000081526004016110e2906128dd565b60405180910390fd5b60006110f5611b00565b90506000600260008460800135815260200190815260200160002060009054906101000a900473ffffffffffffffffffffffffffffffffffffffff169050600061113e8261097d565b90508281101561117a576040517feb75f2a100000000000000000000000000000000000000000000000000000000815260040160405180910390fd5b6111848585610ae3565b6111ba576040517faf845a6200000000000000000000000000000000000000000000000000000000815260040160405180910390fd5b60016003600087815260200190815260200160002060008660400135815260200190815260200160002060006101000a81548160ff0219169083151502179055506001600460008660800135815260200190815260200160002060008660600135815260200190815260200160002060006101000a81548160ff02191690831515021790555082600160008473ffffffffffffffffffffffffffffffffffffffff1673ffffffffffffffffffffffffffffffffffffffff168152602001908152602001600020600201600082825461129291906123c9565b925050819055508173ffffffffffffffffffffffffffffffffffffffff167f6db3d7f5d4e23613f5171119dd42f2d08d091f647b3138e2c4dc4586f843ceda82600160008673ffffffffffffffffffffffffffffffffffffffff1673ffffffffffffffffffffffffffffffffffffffff168152602001908152602001600020600201546002604051611326939291906124ba565b60405180910390a2611336611b0f565b83602001358460000135867f04c94041821c0cd95c312cb58300044c1c4a13eab7488d7c289cc08786336b588760400135886060013589608001358a60a0016040516113859493929190612917565b60405180910390a45050505050565b6000600160003373ffffffffffffffffffffffffffffffffffffffff1673ffffffffffffffffffffffffffffffffffffffff1681526020019081526020016000206000015403611410576040517ffa43867800000000000000000000000000000000000000000000000000000000815260040160405180910390fd5b6000600160003373ffffffffffffffffffffffffffffffffffffffff1673ffffffffffffffffffffffffffffffffffffffff16815260200190815260200160002060020154905034600160003373ffffffffffffffffffffffffffffffffffffffff1673ffffffffffffffffffffffffffffffffffffffff16815260200190815260200160002060020160008282546114a9919061295d565b925050819055503373ffffffffffffffffffffffffffffffffffffffff167f6db3d7f5d4e23613f5171119dd42f2d08d091f647b3138e2c4dc4586f843ceda82600160003373ffffffffffffffffffffffffffffffffffffffff1673ffffffffffffffffffffffffffffffffffffffff16815260200190815260200160002060020154600060405161153d939291906124ba565b60405180910390a250565b6000600160003373ffffffffffffffffffffffffffffffffffffffff1673ffffffffffffffffffffffffffffffffffffffff16815260200190815260200160002060000154036115c4576040517ffa43867800000000000000000000000000000000000000000000000000000000815260040160405180910390fd5b600160003373ffffffffffffffffffffffffffffffffffffffff1673ffffffffffffffffffffffffffffffffffffffff168152602001908152602001600020600101600082815260200190815260200160002060009054906101000a900460ff161561165c576040517fbaab082800000000000000000000000000000000000000000000000000000000815260040160405180910390fd5b60007f000000000000000000000000000000000000000000000000000000000000000073ffffffffffffffffffffffffffffffffffffffff16630c8c7900836040518263ffffffff1660e01b81526004016116b79190612052565b602060405180830381865afa1580156116d4573d6000803e3d6000fd5b505050506040513d601f19601f820116820180604052508101906116f89190612548565b905080341015611734576040517f543ead0100000000000000000000000000000000000000000000000000000000815260040160405180910390fd5b60007f000000000000000000000000000000000000000000000000000000000000000073ffffffffffffffffffffffffffffffffffffffff1663aac80472846040518263ffffffff1660e01b815260040161178f9190612052565b602060405180830381865afa1580156117ac573d6000803e3d6000fd5b505050506040513d601f19601f820116820180604052508101906117d09190612506565b905060008211156118805760008173ffffffffffffffffffffffffffffffffffffffff16346040516118019061242e565b60006040518083038185875af1925050503d806000811461183e576040519150601f19603f3d011682016040523d82523d6000602084013e611843565b606091505b505090508061187e576040517fe0304cc800000000000000000000000000000000000000000000000000000000815260040160405180910390fd5b505b60018060003373ffffffffffffffffffffffffffffffffffffffff1673ffffffffffffffffffffffffffffffffffffffff168152602001908152602001600020600101600085815260200190815260200160002060006101000a81548160ff021916908315150217905550823373ffffffffffffffffffffffffffffffffffffffff167f811bb6532ea03d1d1bc217f71996a87ef9bf49c34895b8aeaa50afd73a32f3b060405160405180910390a3505050565b60046020528160005260406000206020528060005260406000206000915091509054906101000a900460ff1681565b60005481565b60026020528060005260406000206000915054906101000a900473ffffffffffffffffffffffffffffffffffffffff1681565b60006008826040516020016119b191906129b2565b6040516020818303038152906040528051906020012060001c901c9050919050565b60007f000000000000000000000000000000000000000000000000000000000000000015611a455773b16a1dbe755f992636705fdbb3a8678a657eb3ea73ffffffffffffffffffffffffffffffffffffffff168273ffffffffffffffffffffffffffffffffffffffff16149050611afb565b7f000000000000000000000000000000000000000000000000000000000000000015611ab55773abcc9b596420a9e9172fd5938620e265a0f9df9273ffffffffffffffffffffffffffffffffffffffff168273ffffffffffffffffffffffffffffffffffffffff16149050611afb565b73cd565435e0d2109fefde337a66491541df0d142073ffffffffffffffffffffffffffffffffffffffff168273ffffffffffffffffffffffffffffffffffffffff161490505b919050565b6000611b0a611b51565b905090565b611b4f611b1a611b5d565b611b22611b00565b611b2a611b6c565b73ffffffffffffffffffffffffffffffffffffffff16611b7b9092919063ffffffff16565b565b60006020360335905090565b6000611b67611c0c565b905090565b6000611b76611c1b565b905090565b6000810315611c075773eeeeeeeeeeeeeeeeeeeeeeeeeeeeeeeeeeeeeeee73ffffffffffffffffffffffffffffffffffffffff168373ffffffffffffffffffffffffffffffffffffffff1614611bfb57611bf682828573ffffffffffffffffffffffffffffffffffffffff16611c2a9092919063ffffffff16565b611c06565b611c058282611cb0565b5b5b505050565b6000604836033560601c905090565b6000603436033560601c905090565b611cab8363a9059cbb60e01b8484604051602401611c499291906129cd565b604051602081830303815290604052907bffffffffffffffffffffffffffffffffffffffffffffffffffffffff19166020820180517bffffffffffffffffffffffffffffffffffffffffffffffffffffffff8381831617835250505050611da4565b505050565b80471015611cf3576040517f08c379a0000000000000000000000000000000000000000000000000000000008152600401611cea90612a42565b60405180910390fd5b60008273ffffffffffffffffffffffffffffffffffffffff1682604051611d199061242e565b60006040518083038185875af1925050503d8060008114611d56576040519150601f19603f3d011682016040523d82523d6000602084013e611d5b565b606091505b5050905080611d9f576040517f08c379a0000000000000000000000000000000000000000000000000000000008152600401611d9690612ad4565b60405180910390fd5b505050565b6000611e06826040518060400160405280602081526020017f5361666545524332303a206c6f772d6c6576656c2063616c6c206661696c65648152508573ffffffffffffffffffffffffffffffffffffffff16611e6c9092919063ffffffff16565b9050600081511480611e28575080806020019051810190611e279190612853565b5b611e67576040517f08c379a0000000000000000000000000000000000000000000000000000000008152600401611e5e90612b66565b60405180910390fd5b505050565b6060611e7b8484600085611e84565b90509392505050565b606082471015611ec9576040517f08c379a0000000000000000000000000000000000000000000000000000000008152600401611ec090612bf8565b60405180910390fd5b6000808673ffffffffffffffffffffffffffffffffffffffff168587604051611ef29190612c7e565b60006040518083038185875af1925050503d8060008114611f2f576040519150601f19603f3d011682016040523d82523d6000602084013e611f34565b606091505b5091509150611f4587838387611f51565b92505050949350505050565b60608315611fb3576000835103611fab57611f6b85611fc6565b611faa576040517f08c379a0000000000000000000000000000000000000000000000000000000008152600401611fa190612ce1565b60405180910390fd5b5b829050611fbe565b611fbd8383611fe9565b5b949350505050565b6000808273ffffffffffffffffffffffffffffffffffffffff163b119050919050565b600082511115611ffc5781518083602001fd5b806040517f08c379a00000000000000000000000000000000000000000000000000000000081526004016120309190612d56565b60405180910390fd5b6000819050919050565b61204c81612039565b82525050565b60006020820190506120676000830184612043565b92915050565b600073ffffffffffffffffffffffffffffffffffffffff82169050919050565b6000819050919050565b60006120b26120ad6120a88461206d565b61208d565b61206d565b9050919050565b60006120c482612097565b9050919050565b60006120d6826120b9565b9050919050565b6120e6816120cb565b82525050565b600060208201905061210160008301846120dd565b92915050565b600080fd5b61211581612039565b811461212057600080fd5b50565b6000813590506121328161210c565b92915050565b6000806040838503121561214f5761214e612107565b5b600061215d85828601612123565b925050602061216e85828601612123565b9150509250929050565b60008115159050919050565b61218d81612178565b82525050565b60006020820190506121a86000830184612184565b92915050565b6000602082840312156121c4576121c3612107565b5b60006121d284828501612123565b91505092915050565b60006121e68261206d565b9050919050565b6121f6816121db565b811461220157600080fd5b50565b600081359050612213816121ed565b92915050565b60006020828403121561222f5761222e612107565b5b600061223d84828501612204565b91505092915050565b6000612251826120b9565b9050919050565b61226181612246565b82525050565b600060208201905061227c6000830184612258565b92915050565b600080fd5b60006101a0828403121561229e5761229d612282565b5b81905092915050565b6000806101c083850312156122bf576122be612107565b5b60006122cd85828601612123565b92505060206122de85828601612287565b9150509250929050565b600080604083850312156122ff576122fe612107565b5b600061230d85828601612204565b925050602061231e85828601612123565b9150509250929050565b612331816121db565b82525050565b600060208201905061234c6000830184612328565b92915050565b7f4e487b7100000000000000000000000000000000000000000000000000000000600052601160045260246000fd5b600061238c82612039565b91507fffffffffffffffffffffffffffffffffffffffffffffffffffffffffffffffff82036123be576123bd612352565b5b600182019050919050565b60006123d482612039565b91506123df83612039565b92508282039050818111156123f7576123f6612352565b5b92915050565b600081905092915050565b50565b60006124186000836123fd565b915061242382612408565b600082019050919050565b60006124398261240b565b9150819050919050565b7f4e487b7100000000000000000000000000000000000000000000000000000000600052602160045260246000fd5b6003811061248357612482612443565b5b50565b600081905061249482612472565b919050565b60006124a482612486565b9050919050565b6124b481612499565b82525050565b60006060820190506124cf6000830186612043565b6124dc6020830185612043565b6124e960408301846124ab565b949350505050565b600081519050612500816121ed565b92915050565b60006020828403121561251c5761251b612107565b5b600061252a848285016124f1565b91505092915050565b6000815190506125428161210c565b92915050565b60006020828403121561255e5761255d612107565b5b600061256c84828501612533565b91505092915050565b7f4e487b7100000000000000000000000000000000000000000000000000000000600052603260045260246000fd5b600060029050919050565b600081905092915050565b6000819050919050565b6125cd81612039565b82525050565b60006125df83836125c4565b60208301905092915050565b6000602082019050919050565b612601816125a4565b61260b81846125af565b9250612616826125ba565b8060005b8381101561264757815161262e87826125d3565b9650612639836125eb565b92505060018101905061261a565b505050505050565b600060029050919050565b600081905092915050565b6000819050919050565b600081905092915050565b612683816125a4565b61268d818461266f565b9250612698826125ba565b8060005b838110156126c95781516126b087826125d3565b96506126bb836125eb565b92505060018101905061269c565b505050505050565b60006126dd838361267a565b60408301905092915050565b6000602082019050919050565b6126ff8161264f565b612709818461265a565b925061271482612665565b8060005b8381101561274557815161272c87826126d1565b9650612737836126e9565b925050600181019050612718565b505050505050565b600060049050919050565b600081905092915050565b6000819050919050565b6000602082019050919050565b6127838161274d565b61278d8184612758565b925061279882612763565b8060005b838110156127c95781516127b087826125d3565b96506127bb8361276d565b92505060018101905061279c565b505050505050565b60006101a0820190506127e760008301886125f8565b6127f460408301876126f6565b61280160c08301866125f8565b61280f61010083018561277a565b61281d610180830184612043565b9695505050505050565b61283081612178565b811461283b57600080fd5b50565b60008151905061284d81612827565b92915050565b60006020828403121561286957612868612107565b5b60006128778482850161283e565b91505092915050565b600082825260208201905092915050565b7f6f6e6c7947656c61746f52656c61790000000000000000000000000000000000600082015250565b60006128c7600f83612880565b91506128d282612891565b602082019050919050565b600060208201905081810360008301526128f6816128ba565b9050919050565b82818337505050565b61291361010083836128fd565b5050565b60006101608201905061292d6000830187612043565b61293a6020830186612043565b6129476040830185612043565b6129546060830184612906565b95945050505050565b600061296882612039565b915061297383612039565b925082820190508082111561298b5761298a612352565b5b92915050565b6000819050919050565b6129ac6129a782612039565b612991565b82525050565b60006129be828461299b565b60208201915081905092915050565b60006040820190506129e26000830185612328565b6129ef6020830184612043565b9392505050565b7f416464726573733a20696e73756666696369656e742062616c616e6365000000600082015250565b6000612a2c601d83612880565b9150612a37826129f6565b602082019050919050565b60006020820190508181036000830152612a5b81612a1f565b9050919050565b7f416464726573733a20756e61626c6520746f2073656e642076616c75652c207260008201527f6563697069656e74206d61792068617665207265766572746564000000000000602082015250565b6000612abe603a83612880565b9150612ac982612a62565b604082019050919050565b60006020820190508181036000830152612aed81612ab1565b9050919050565b7f5361666545524332303a204552433230206f7065726174696f6e20646964206e60008201527f6f74207375636365656400000000000000000000000000000000000000000000602082015250565b6000612b50602a83612880565b9150612b5b82612af4565b604082019050919050565b60006020820190508181036000830152612b7f81612b43565b9050919050565b7f416464726573733a20696e73756666696369656e742062616c616e636520666f60008201527f722063616c6c0000000000000000000000000000000000000000000000000000602082015250565b6000612be2602683612880565b9150612bed82612b86565b604082019050919050565b60006020820190508181036000830152612c1181612bd5565b9050919050565b600081519050919050565b60005b83811015612c41578082015181840152602081019050612c26565b60008484015250505050565b6000612c5882612c18565b612c6281856123fd565b9350612c72818560208601612c23565b80840191505092915050565b6000612c8a8284612c4d565b915081905092915050565b7f416464726573733a2063616c6c20746f206e6f6e2d636f6e7472616374000000600082015250565b6000612ccb601d83612880565b9150612cd682612c95565b602082019050919050565b60006020820190508181036000830152612cfa81612cbe565b9050919050565b600081519050919050565b6000601f19601f8301169050919050565b6000612d2882612d01565b612d328185612880565b9350612d42818560208601612c23565b612d4b81612d0c565b840191505092915050565b60006020820190508181036000830152612d708184612d1d565b90509291505056fea26469706673582212207ff3ff156fbc72c16462dc79fb911a85fa3d81ad92873158db61c53a03670faf64736f6c634300081c0033",
  "linkReferences": {},
  "deployedLinkReferences": {}
}