{
  "_format": "hh-sol-artifact-1",
  "contractName": "Manager",
  "sourceName": "contracts/Manager.sol",
  "abi": [
    {
      "inputs": [],
      "name": "LeafAlreadyExists",
      "type": "error"
    },
    {
      "inputs": [],
      "name": "LeafCannotBeZero",
      "type": "error"
    },
    {
      "inputs": [],
      "name": "LeafDoesNotExist",
      "type": "error"
    },
    {
      "inputs": [],
      "name": "LeafGreaterThanSnarkScalarField",
      "type": "error"
    },
    {
      "inputs": [],
      "name": "Manager__AlreadyRegistered",
      "type": "error"
    },
    {
      "inputs": [],
      "name": "Manager__NotRegistered",
      "type": "error"
    },
    {
      "inputs": [],
      "name": "Semaphore__CallerIsNotTheGroupAdmin",
      "type": "error"
    },
    {
      "inputs": [],
      "name": "Semaphore__CallerIsNotThePendingGroupAdmin",
      "type": "error"
    },
    {
      "inputs": [],
      "name": "Semaphore__GroupDoesNotExist",
      "type": "error"
    },
    {
      "inputs": [],
      "name": "WrongSiblingNodes",
      "type": "error"
    },
    {
      "anonymous": false,
      "inputs": [
        {
          "indexed": true,
          "internalType": "uint256",
          "name": "groupId",
          "type": "uint256"
        },
        {
          "indexed": true,
          "internalType": "address",
          "name": "oldAdmin",
          "type": "address"
        },
        {
          "indexed": true,
          "internalType": "address",
          "name": "newAdmin",
          "type": "address"
        }
      ],
      "name": "GroupAdminPending",
      "type": "event"
    },
    {
      "anonymous": false,
      "inputs": [
        {
          "indexed": true,
          "internalType": "uint256",
          "name": "groupId",
          "type": "uint256"
        },
        {
          "indexed": true,
          "internalType": "address",
          "name": "oldAdmin",
          "type": "address"
        },
        {
          "indexed": true,
          "internalType": "address",
          "name": "newAdmin",
          "type": "address"
        }
      ],
      "name": "GroupAdminUpdated",
      "type": "event"
    },
    {
      "anonymous": false,
      "inputs": [
        {
          "indexed": true,
          "internalType": "uint256",
          "name": "groupId",
          "type": "uint256"
        }
      ],
      "name": "GroupCreated",
      "type": "event"
    },
    {
      "anonymous": false,
      "inputs": [
        {
          "indexed": true,
          "internalType": "address",
          "name": "manager",
          "type": "address"
        },
        {
          "indexed": true,
          "internalType": "uint256",
          "name": "groupId",
          "type": "uint256"
        }
      ],
      "name": "ManagerRegistered",
      "type": "event"
    },
    {
      "anonymous": false,
      "inputs": [
        {
          "indexed": true,
          "internalType": "uint256",
          "name": "groupId",
          "type": "uint256"
        },
        {
          "indexed": false,
          "internalType": "uint256",
          "name": "index",
          "type": "uint256"
        },
        {
          "indexed": false,
          "internalType": "uint256",
          "name": "identityCommitment",
          "type": "uint256"
        },
        {
          "indexed": false,
          "internalType": "uint256",
          "name": "merkleTreeRoot",
          "type": "uint256"
        }
      ],
      "name": "MemberAdded",
      "type": "event"
    },
    {
      "anonymous": false,
      "inputs": [
        {
          "indexed": true,
          "internalType": "uint256",
          "name": "groupId",
          "type": "uint256"
        },
        {
          "indexed": false,
          "internalType": "uint256",
          "name": "index",
          "type": "uint256"
        },
        {
          "indexed": false,
          "internalType": "uint256",
          "name": "identityCommitment",
          "type": "uint256"
        },
        {
          "indexed": false,
          "internalType": "uint256",
          "name": "merkleTreeRoot",
          "type": "uint256"
        }
      ],
      "name": "MemberRemoved",
      "type": "event"
    },
    {
      "anonymous": false,
      "inputs": [
        {
          "indexed": true,
          "internalType": "uint256",
          "name": "groupId",
          "type": "uint256"
        },
        {
          "indexed": false,
          "internalType": "uint256",
          "name": "index",
          "type": "uint256"
        },
        {
          "indexed": false,
          "internalType": "uint256",
          "name": "identityCommitment",
          "type": "uint256"
        },
        {
          "indexed": false,
          "internalType": "uint256",
          "name": "newIdentityCommitment",
          "type": "uint256"
        },
        {
          "indexed": false,
          "internalType": "uint256",
          "name": "merkleTreeRoot",
          "type": "uint256"
        }
      ],
      "name": "MemberUpdated",
      "type": "event"
    },
    {
      "anonymous": false,
      "inputs": [
        {
          "indexed": true,
          "internalType": "uint256",
          "name": "groupId",
          "type": "uint256"
        },
        {
          "indexed": false,
          "internalType": "uint256",
          "name": "startIndex",
          "type": "uint256"
        },
        {
          "indexed": false,
          "internalType": "uint256[]",
          "name": "identityCommitments",
          "type": "uint256[]"
        },
        {
          "indexed": false,
          "internalType": "uint256",
          "name": "merkleTreeRoot",
          "type": "uint256"
        }
      ],
      "name": "MembersAdded",
      "type": "event"
    },
    {
      "anonymous": false,
      "inputs": [
        {
          "indexed": true,
          "internalType": "uint256",
          "name": "groupId",
          "type": "uint256"
        },
        {
          "indexed": false,
          "internalType": "uint256",
          "name": "fee",
          "type": "uint256"
        }
      ],
      "name": "RegistrationFeeUpdated",
      "type": "event"
    },
    {
      "inputs": [
        {
          "internalType": "uint256",
          "name": "groupId",
          "type": "uint256"
        }
      ],
      "name": "acceptGroupManager",
      "outputs": [],
      "stateMutability": "nonpayable",
      "type": "function"
    },
    {
      "inputs": [
        {
          "internalType": "uint256",
          "name": "groupId",
          "type": "uint256"
        },
        {
          "internalType": "uint256",
          "name": "identityCommitment",
          "type": "uint256"
        }
      ],
      "name": "addMember",
      "outputs": [],
      "stateMutability": "nonpayable",
      "type": "function"
    },
    {
      "inputs": [
        {
          "internalType": "uint256",
          "name": "groupId",
          "type": "uint256"
        },
        {
          "internalType": "uint256[]",
          "name": "identityCommitments",
          "type": "uint256[]"
        }
      ],
      "name": "addMembers",
      "outputs": [],
      "stateMutability": "nonpayable",
      "type": "function"
    },
    {
      "inputs": [
        {
          "internalType": "uint256",
          "name": "groupId",
          "type": "uint256"
        }
      ],
      "name": "getGroupAdmin",
      "outputs": [
        {
          "internalType": "address",
          "name": "",
          "type": "address"
        }
      ],
      "stateMutability": "view",
      "type": "function"
    },
    {
      "inputs": [
        {
          "internalType": "uint256",
          "name": "groupId",
          "type": "uint256"
        }
      ],
      "name": "getManagerAddress",
      "outputs": [
        {
          "internalType": "address",
          "name": "",
          "type": "address"
        }
      ],
      "stateMutability": "view",
      "type": "function"
    },
    {
      "inputs": [
        {
          "internalType": "address",
          "name": "manager",
          "type": "address"
        }
      ],
      "name": "getManagerGroupId",
      "outputs": [
        {
          "internalType": "uint256",
          "name": "",
          "type": "uint256"
        }
      ],
      "stateMutability": "view",
      "type": "function"
    },
    {
      "inputs": [
        {
          "internalType": "uint256",
          "name": "groupId",
          "type": "uint256"
        }
      ],
      "name": "getMerkleTreeDepth",
      "outputs": [
        {
          "internalType": "uint256",
          "name": "",
          "type": "uint256"
        }
      ],
      "stateMutability": "view",
      "type": "function"
    },
    {
      "inputs": [
        {
          "internalType": "uint256",
          "name": "groupId",
          "type": "uint256"
        }
      ],
      "name": "getMerkleTreeRoot",
      "outputs": [
        {
          "internalType": "uint256",
          "name": "",
          "type": "uint256"
        }
      ],
      "stateMutability": "view",
      "type": "function"
    },
    {
      "inputs": [
        {
          "internalType": "uint256",
          "name": "groupId",
          "type": "uint256"
        }
      ],
      "name": "getMerkleTreeSize",
      "outputs": [
        {
          "internalType": "uint256",
          "name": "",
          "type": "uint256"
        }
      ],
      "stateMutability": "view",
      "type": "function"
    },
    {
      "inputs": [
        {
          "internalType": "uint256",
          "name": "groupId",
          "type": "uint256"
        }
      ],
      "name": "getRegistrationFee",
      "outputs": [
        {
          "internalType": "uint256",
          "name": "",
          "type": "uint256"
        }
      ],
      "stateMutability": "view",
      "type": "function"
    },
    {
      "inputs": [],
      "name": "groupCounter",
      "outputs": [
        {
          "internalType": "uint256",
          "name": "",
          "type": "uint256"
        }
      ],
      "stateMutability": "view",
      "type": "function"
    },
    {
      "inputs": [
        {
          "internalType": "uint256",
          "name": "groupId",
          "type": "uint256"
        },
        {
          "internalType": "uint256",
          "name": "identityCommitment",
          "type": "uint256"
        }
      ],
      "name": "hasMember",
      "outputs": [
        {
          "internalType": "bool",
          "name": "",
          "type": "bool"
        }
      ],
      "stateMutability": "view",
      "type": "function"
    },
    {
      "inputs": [
        {
          "internalType": "uint256",
          "name": "groupId",
          "type": "uint256"
        },
        {
          "internalType": "uint256",
          "name": "identityCommitment",
          "type": "uint256"
        }
      ],
      "name": "indexOf",
      "outputs": [
        {
          "internalType": "uint256",
          "name": "",
          "type": "uint256"
        }
      ],
      "stateMutability": "view",
      "type": "function"
    },
    {
      "inputs": [],
      "name": "register",
      "outputs": [
        {
          "internalType": "uint256",
          "name": "groupId",
          "type": "uint256"
        }
      ],
      "stateMutability": "nonpayable",
      "type": "function"
    },
    {
      "inputs": [
        {
          "internalType": "uint256",
          "name": "groupId",
          "type": "uint256"
        },
        {
          "internalType": "uint256",
          "name": "identityCommitment",
          "type": "uint256"
        },
        {
          "internalType": "uint256[]",
          "name": "merkleProofSiblings",
          "type": "uint256[]"
        }
      ],
      "name": "removeMember",
      "outputs": [],
      "stateMutability": "nonpayable",
      "type": "function"
    },
    {
      "inputs": [
        {
          "internalType": "uint256",
          "name": "fee",
          "type": "uint256"
        }
      ],
      "name": "setRegistrationFee",
      "outputs": [],
      "stateMutability": "nonpayable",
      "type": "function"
    },
    {
      "inputs": [
        {
          "internalType": "uint256",
          "name": "groupId",
          "type": "uint256"
        },
        {
          "internalType": "address",
          "name": "newManager",
          "type": "address"
        }
      ],
      "name": "updateGroupManager",
      "outputs": [],
      "stateMutability": "nonpayable",
      "type": "function"
    },
    {
      "inputs": [
        {
          "internalType": "uint256",
          "name": "groupId",
          "type": "uint256"
        },
        {
          "internalType": "uint256",
          "name": "oldIdentityCommitment",
          "type": "uint256"
        },
        {
          "internalType": "uint256",
          "name": "newIdentityCommitment",
          "type": "uint256"
        },
        {
          "internalType": "uint256[]",
          "name": "merkleProofSiblings",
          "type": "uint256[]"
        }
      ],
      "name": "updateMember",
      "outputs": [],
      "stateMutability": "nonpayable",
      "type": "function"
    }
  ],
  "bytecode": "0x6080604052348015600f57600080fd5b506128c58061001f6000396000f3fe608060405234801561001057600080fd5b50600436106101165760003560e01c80636e5d4aa9116100a2578063aac8047211610071578063aac8047214610315578063c320c72714610345578063d24924fe14610361578063dabc4d511461037f578063f4bae685146103af57610116565b80636e5d4aa9146102695780637ee35a0c1461028557806390509d44146102b5578063a9961c94146102e557610116565b80631aa3a008116100e95780631aa3a008146101b3578063338ed682146101d15780634178c4d5146102015780636389e1071461021d5780636cdd32fe1461024d57610116565b8063042453711461011b57806306dd8485146101375780630c8c7900146101675780631783efc314610197575b600080fd5b61013560048036038101906101309190612035565b6103cb565b005b610151600480360381019061014c9190612095565b6103dc565b60405161015e91906120e4565b60405180910390f35b610181600480360381019061017c91906120ff565b61040a565b60405161018e91906120e4565b60405180910390f35b6101b160048036038101906101ac9190612095565b610427565b005b6101bb610436565b6040516101c891906120e4565b60405180910390f35b6101eb60048036038101906101e6919061218a565b61055c565b6040516101f891906120e4565b60405180910390f35b61021b600480360381019061021691906121b7565b6105a5565b005b610237600480360381019061023291906120ff565b6105ba565b60405161024491906120e4565b60405180910390f35b6102676004803603810190610262919061223f565b6105d9565b005b610283600480360381019061027e91906120ff565b6105ec565b005b61029f600480360381019061029a91906120ff565b6105f8565b6040516102ac91906120e4565b60405180910390f35b6102cf60048036038101906102ca9190612095565b610617565b6040516102dc91906122ce565b60405180910390f35b6102ff60048036038101906102fa91906120ff565b610645565b60405161030c91906122f8565b60405180910390f35b61032f600480360381019061032a91906120ff565b610682565b60405161033c91906122f8565b60405180910390f35b61035f600480360381019061035a91906120ff565b6106bf565b005b610369610791565b60405161037691906120e4565b60405180910390f35b610399600480360381019061039491906120ff565b610797565b6040516103a691906120e4565b60405180910390f35b6103c960048036038101906103c49190612313565b6107a9565b005b6103d68383836107b7565b50505050565b6000610402826000808681526020019081526020016000206108ce90919063ffffffff16565b905092915050565b600060056000838152602001908152602001600020549050919050565b6104318282610948565b505050565b600080600460003373ffffffffffffffffffffffffffffffffffffffff1673ffffffffffffffffffffffffffffffffffffffff16815260200190815260200160002054146104b0576040517fec76d3cf00000000000000000000000000000000000000000000000000000000815260040160405180910390fd5b6003600081546104bf90612382565b91905081905590506104d18133610a5a565b80600460003373ffffffffffffffffffffffffffffffffffffffff1673ffffffffffffffffffffffffffffffffffffffff16815260200190815260200160002081905550803373ffffffffffffffffffffffffffffffffffffffff167ff643b5f5fc17eb9ba792088debfbea2fe607396836249e72ee0ecf7b18a055c360405160405180910390a390565b6000600460008373ffffffffffffffffffffffffffffffffffffffff1673ffffffffffffffffffffffffffffffffffffffff168152602001908152602001600020549050919050565b6105b28585858585610b39565b505050505050565b6000806000838152602001908152602001600020600101549050919050565b6105e584848484610c71565b5050505050565b6105f581610da4565b50565b6000806000838152602001908152602001600020600001549050919050565b600061063d82600080868152602001908152602001600020610f5b90919063ffffffff16565b905092915050565b60006001600083815260200190815260200160002060009054906101000a900473ffffffffffffffffffffffffffffffffffffffff169050919050565b60006001600083815260200190815260200160002060009054906101000a900473ffffffffffffffffffffffffffffffffffffffff169050919050565b6000600460003373ffffffffffffffffffffffffffffffffffffffff1673ffffffffffffffffffffffffffffffffffffffff1681526020019081526020016000205490506000810361073d576040517f2751ecd900000000000000000000000000000000000000000000000000000000815260040160405180910390fd5b816005600083815260200190815260200160002081905550807f50b218c5a101ad05d53ab0a964d01da639ee79525ae4b7802ed714249740a8d58360405161078591906120e4565b60405180910390a25050565b60035481565b60006107a282610f7e565b9050919050565b6107b38282610fa1565b5050565b6000833373ffffffffffffffffffffffffffffffffffffffff166001600083815260200190815260200160002060009054906101000a900473ffffffffffffffffffffffffffffffffffffffff1673ffffffffffffffffffffffffffffffffffffffff1614610852576040517fbb9bf27800000000000000000000000000000000000000000000000000000000815260040160405180910390fd5b600061085d866105f8565b905061088585856000808a81526020019081526020016000206110ec9092919063ffffffff16565b9250857f61e5e8054e3daf084a0c6c646c065e8bf5e7ca4d5567bda942309bd1652f349d828787876040516108bd9493929190612445565b60405180910390a250509392505050565b600080836003016000848152602001908152602001600020540361091e576040517f7204756c00000000000000000000000000000000000000000000000000000000815260040160405180910390fd5b6001836003016000848152602001908152602001600020546109409190612485565b905092915050565b6000823373ffffffffffffffffffffffffffffffffffffffff166001600083815260200190815260200160002060009054906101000a900473ffffffffffffffffffffffffffffffffffffffff1673ffffffffffffffffffffffffffffffffffffffff16146109e3576040517fbb9bf27800000000000000000000000000000000000000000000000000000000815260040160405180910390fd5b60006109ee856105f8565b9050610a14846000808881526020019081526020016000206116d090919063ffffffff16565b9250847f19239b3f93cd10558aaf11423af70c77763bf54f52bcc75bfa74d4d13548cde9828686604051610a4a939291906124b9565b60405180910390a2505092915050565b806001600084815260200190815260200160002060006101000a81548173ffffffffffffffffffffffffffffffffffffffff021916908373ffffffffffffffffffffffffffffffffffffffff160217905550817ff0adfb94eab6daf835deb69c5738fe636150c3dfd08094a76f39b963dc8cb05a60405160405180910390a28073ffffffffffffffffffffffffffffffffffffffff16600073ffffffffffffffffffffffffffffffffffffffff16837f0ba83579a0e79193ef649b9f5a8759d35af086ba62a3e207b52e4a8ae30d49e360405160405180910390a45050565b6000853373ffffffffffffffffffffffffffffffffffffffff166001600083815260200190815260200160002060009054906101000a900473ffffffffffffffffffffffffffffffffffffffff1673ffffffffffffffffffffffffffffffffffffffff1614610bd4576040517fbb9bf27800000000000000000000000000000000000000000000000000000000815260040160405180910390fd5b6000610bfa876000808b81526020019081526020016000206108ce90919063ffffffff16565b9050610c26878787876000808e815260200190815260200160002061192f90949392919063ffffffff16565b9250877fea3588e4a2a0c93d6a0e69dfeaf7496f43ccccf02ad9ce0a5b7627cbca4b61b182898987604051610c5e94939291906124f0565b60405180910390a2505095945050505050565b6000843373ffffffffffffffffffffffffffffffffffffffff166001600083815260200190815260200160002060009054906101000a900473ffffffffffffffffffffffffffffffffffffffff1673ffffffffffffffffffffffffffffffffffffffff1614610d0c576040517fbb9bf27800000000000000000000000000000000000000000000000000000000815260040160405180910390fd5b6000610d32866000808a81526020019081526020016000206108ce90919063ffffffff16565b9050610d5c8686866000808c8152602001908152602001600020611f53909392919063ffffffff16565b9250867f3108849c053c77b8073a11256dffb5ffd5b55e93e105a355e1c9061db890d871828886604051610d92939291906124b9565b60405180910390a25050949350505050565b3373ffffffffffffffffffffffffffffffffffffffff166002600083815260200190815260200160002060009054906101000a900473ffffffffffffffffffffffffffffffffffffffff1673ffffffffffffffffffffffffffffffffffffffff1614610e3c576040517f34c4245d00000000000000000000000000000000000000000000000000000000815260040160405180910390fd5b60006001600083815260200190815260200160002060009054906101000a900473ffffffffffffffffffffffffffffffffffffffff169050336001600084815260200190815260200160002060006101000a81548173ffffffffffffffffffffffffffffffffffffffff021916908373ffffffffffffffffffffffffffffffffffffffff1602179055506002600083815260200190815260200160002060006101000a81549073ffffffffffffffffffffffffffffffffffffffff02191690553373ffffffffffffffffffffffffffffffffffffffff168173ffffffffffffffffffffffffffffffffffffffff16837f0ba83579a0e79193ef649b9f5a8759d35af086ba62a3e207b52e4a8ae30d49e360405160405180910390a45050565b600080836003016000848152602001908152602001600020541415905092915050565b6000610f9a600080848152602001908152602001600020611f6d565b9050919050565b813373ffffffffffffffffffffffffffffffffffffffff166001600083815260200190815260200160002060009054906101000a900473ffffffffffffffffffffffffffffffffffffffff1673ffffffffffffffffffffffffffffffffffffffff161461103a576040517fbb9bf27800000000000000000000000000000000000000000000000000000000815260040160405180910390fd5b816002600085815260200190815260200160002060006101000a81548173ffffffffffffffffffffffffffffffffffffffff021916908373ffffffffffffffffffffffffffffffffffffffff1602179055508173ffffffffffffffffffffffffffffffffffffffff163373ffffffffffffffffffffffffffffffffffffffff16847f1018365553cce55d9cb02ef73e18cc9311894f3fe1d1eafd235ac2d26cd8ba5860405160405180910390a4505050565b6000808460000154905060005b84849050811015611278577f30644e72e131a029b85045b68181585d2833e84879b9709143e1f593f000000185858381811061113857611137612535565b5b9050602002013510611176576040517fc380a82e00000000000000000000000000000000000000000000000000000000815260040160405180910390fd5b600085858381811061118b5761118a612535565b5b90506020020135036111c9576040517f29691be200000000000000000000000000000000000000000000000000000000815260040160405180910390fd5b6111ec868686848181106111e0576111df612535565b5b90506020020135610f5b565b15611223576040517f258a195a00000000000000000000000000000000000000000000000000000000815260040160405180910390fd5b806001836112319190612564565b61123b9190612564565b86600301600087878581811061125457611253612535565b5b905060200201358152602001908152602001600020819055508060010190506110f9565b506060848480806020026020016040519081016040528093929190818152602001838360200280828437600081840152601f19601f8201169050808301925050505050505090506000866001015490505b85859050836112d89190612564565b8160026112e591906126cb565b10156112fc57806112f590612382565b90506112c9565b80876001018190555060008390506000878790508561131b9190612564565b90506000600183901c905060006001806001856113389190612485565b901c6113449190612564565b905060005b85811015611657576000838361135f9190612485565b905060008167ffffffffffffffff81111561137d5761137c612716565b5b6040519080825280602002602001820160405280156113ab5781602001602082028036833780820191505090505b50905060005b8281101561157e57600088600288846113ca9190612564565b6113d49190612745565b10156113f7578f6002016000868152602001908152602001600020549050611437565b8a89600289856114079190612564565b6114119190612745565b61141b9190612485565b8151811061142c5761142b612535565b5b602002602001015190505b600088600160028a8661144a9190612564565b6114549190612745565b61145e9190612564565b10156114b0578b8a600160028b876114769190612564565b6114809190612745565b61148a9190612564565b6114949190612485565b815181106114a5576114a4612535565b5b602002602001015190505b600080821461154c5773__$75f79a42d9bcbdbb69ad79ebd80f556f39$__63561558fe6040518060400160405280868152602001858152506040518263ffffffff1660e01b81526004016115049190612832565b602060405180830381865af4158015611521573d6000803e3d6000fd5b505050506040513d601f19601f820116820180604052508101906115459190612862565b9050611550565b8290505b8085858151811061156457611563612535565b5b6020026020010181815250508360010193505050506113b1565b506001808716036115cf578860018a516115989190612485565b815181106115a9576115a8612535565b5b60200260200101518e60020160008581526020019081526020016000208190555061161c565b60018951111561161b578860028a516115e89190612485565b815181106115f9576115f8612535565b5b60200260200101518e6002016000858152602001908152602001600020819055505b5b849650600185901c945080985083955060018060018661163c9190612485565b901c6116489190612564565b93508260010192505050611349565b5089899050876116679190612564565b8b600001819055508560008151811061168357611682612535565b5b60200260200101518b600201600087815260200190815260200160002081905550856000815181106116b8576116b7612535565b5b60200260200101519750505050505050509392505050565b60007f30644e72e131a029b85045b68181585d2833e84879b9709143e1f593f0000001821061172b576040517fc380a82e00000000000000000000000000000000000000000000000000000000815260040160405180910390fd5b60008203611765576040517f29691be200000000000000000000000000000000000000000000000000000000815260040160405180910390fd5b61176f8383610f5b565b156117a6576040517f258a195a00000000000000000000000000000000000000000000000000000000815260040160405180910390fd5b6000836000015490506000846001015490506001826117c59190612564565b8160026117d291906126cb565b10156117e557806117e290612382565b90505b808560010181905550600084905060005b828110156118d9576001808286901c16036118b35773__$75f79a42d9bcbdbb69ad79ebd80f556f39$__63561558fe60405180604001604052808a6002016000868152602001908152602001600020548152602001858152506040518263ffffffff1660e01b815260040161186b9190612832565b602060405180830381865af4158015611888573d6000803e3d6000fd5b505050506040513d601f19601f820116820180604052508101906118ac9190612862565b91506118ce565b81876002016000838152602001908152602001600020819055505b8060010190506117f6565b50826118e490612382565b92508286600001819055508086600201600084815260200190815260200160002081905550828660030160008781526020019081526020016000208190555080935050505092915050565b60007f30644e72e131a029b85045b68181585d2833e84879b9709143e1f593f0000001841061198a576040517fc380a82e00000000000000000000000000000000000000000000000000000000815260040160405180910390fd5b6119948686610f5b565b6119ca576040517f7204756c00000000000000000000000000000000000000000000000000000000815260040160405180910390fd5b6119d48685610f5b565b15611a0b576040517f258a195a00000000000000000000000000000000000000000000000000000000815260040160405180910390fd5b6000611a1787876108ce565b905060008590506000879050600060018a60000154611a369190612485565b90506000808b60010154905060005b81811015611e92576001808289901c1603611c5c577f30644e72e131a029b85045b68181585d2833e84879b9709143e1f593f00000018a8a85818110611a8e57611a8d612535565b5b9050602002013510611acc576040517fc380a82e00000000000000000000000000000000000000000000000000000000815260040160405180910390fd5b848d60020160008381526020019081526020016000205403611b0357858d6002016000838152602001908152602001600020819055505b73__$75f79a42d9bcbdbb69ad79ebd80f556f39$__63561558fe60405180604001604052808d8d88818110611b3b57611b3a612535565b5b905060200201358152602001898152506040518263ffffffff1660e01b8152600401611b679190612832565b602060405180830381865af4158015611b84573d6000803e3d6000fd5b505050506040513d601f19601f82011682018060405250810190611ba89190612862565b955073__$75f79a42d9bcbdbb69ad79ebd80f556f39$__63561558fe60405180604001604052808d8d88818110611be257611be1612535565b5b905060200201358152602001888152506040518263ffffffff1660e01b8152600401611c0e9190612832565b602060405180830381865af4158015611c2b573d6000803e3d6000fd5b505050506040513d601f19601f82011682018060405250810190611c4f9190612862565b9450826001019250611e87565b8084901c8188901c14611e6b577f30644e72e131a029b85045b68181585d2833e84879b9709143e1f593f00000018a8a85818110611c9d57611c9c612535565b5b9050602002013510611cdb576040517fc380a82e00000000000000000000000000000000000000000000000000000000815260040160405180910390fd5b848d60020160008381526020019081526020016000205403611d1257858d6002016000838152602001908152602001600020819055505b73__$75f79a42d9bcbdbb69ad79ebd80f556f39$__63561558fe60405180604001604052808981526020018d8d88818110611d5057611d4f612535565b5b905060200201358152506040518263ffffffff1660e01b8152600401611d769190612832565b602060405180830381865af4158015611d93573d6000803e3d6000fd5b505050506040513d601f19601f82011682018060405250810190611db79190612862565b955073__$75f79a42d9bcbdbb69ad79ebd80f556f39$__63561558fe60405180604001604052808881526020018d8d88818110611df757611df6612535565b5b905060200201358152506040518263ffffffff1660e01b8152600401611e1d9190612832565b602060405180830381865af4158015611e3a573d6000803e3d6000fd5b505050506040513d601f19601f82011682018060405250810190611e5e9190612862565b9450826001019250611e86565b858d6002016000858152602001908152602001600020819055505b5b806001019050611a45565b50611e9c8c611f6d565b8414611ed4576040517f3fa930c600000000000000000000000000000000000000000000000000000000815260040160405180910390fd5b848c60020160008381526020019081526020016000208190555060008a14611f26578b60030160008c8152602001908152602001600020548c60030160008c8152602001908152602001600020819055505b60008c60030160008d81526020019081526020016000208190555084965050505050505095945050505050565b6000611f6385856000868661192f565b9050949350505050565b600081600201600083600101548152602001908152602001600020549050919050565b600080fd5b600080fd5b6000819050919050565b611fad81611f9a565b8114611fb857600080fd5b50565b600081359050611fca81611fa4565b92915050565b600080fd5b600080fd5b600080fd5b60008083601f840112611ff557611ff4611fd0565b5b8235905067ffffffffffffffff81111561201257612011611fd5565b5b60208301915083602082028301111561202e5761202d611fda565b5b9250929050565b60008060006040848603121561204e5761204d611f90565b5b600061205c86828701611fbb565b935050602084013567ffffffffffffffff81111561207d5761207c611f95565b5b61208986828701611fdf565b92509250509250925092565b600080604083850312156120ac576120ab611f90565b5b60006120ba85828601611fbb565b92505060206120cb85828601611fbb565b9150509250929050565b6120de81611f9a565b82525050565b60006020820190506120f960008301846120d5565b92915050565b60006020828403121561211557612114611f90565b5b600061212384828501611fbb565b91505092915050565b600073ffffffffffffffffffffffffffffffffffffffff82169050919050565b60006121578261212c565b9050919050565b6121678161214c565b811461217257600080fd5b50565b6000813590506121848161215e565b92915050565b6000602082840312156121a05761219f611f90565b5b60006121ae84828501612175565b91505092915050565b6000806000806000608086880312156121d3576121d2611f90565b5b60006121e188828901611fbb565b95505060206121f288828901611fbb565b945050604061220388828901611fbb565b935050606086013567ffffffffffffffff81111561222457612223611f95565b5b61223088828901611fdf565b92509250509295509295909350565b6000806000806060858703121561225957612258611f90565b5b600061226787828801611fbb565b945050602061227887828801611fbb565b935050604085013567ffffffffffffffff81111561229957612298611f95565b5b6122a587828801611fdf565b925092505092959194509250565b60008115159050919050565b6122c8816122b3565b82525050565b60006020820190506122e360008301846122bf565b92915050565b6122f28161214c565b82525050565b600060208201905061230d60008301846122e9565b92915050565b6000806040838503121561232a57612329611f90565b5b600061233885828601611fbb565b925050602061234985828601612175565b9150509250929050565b7f4e487b7100000000000000000000000000000000000000000000000000000000600052601160045260246000fd5b600061238d82611f9a565b91507fffffffffffffffffffffffffffffffffffffffffffffffffffffffffffffffff82036123bf576123be612353565b5b600182019050919050565b600082825260208201905092915050565b600080fd5b82818337505050565b60006123f583856123ca565b93507f07ffffffffffffffffffffffffffffffffffffffffffffffffffffffffffffff831115612428576124276123db565b5b6020830292506124398385846123e0565b82840190509392505050565b600060608201905061245a60008301876120d5565b818103602083015261246d8185876123e9565b905061247c60408301846120d5565b95945050505050565b600061249082611f9a565b915061249b83611f9a565b92508282039050818111156124b3576124b2612353565b5b92915050565b60006060820190506124ce60008301866120d5565b6124db60208301856120d5565b6124e860408301846120d5565b949350505050565b600060808201905061250560008301876120d5565b61251260208301866120d5565b61251f60408301856120d5565b61252c60608301846120d5565b95945050505050565b7f4e487b7100000000000000000000000000000000000000000000000000000000600052603260045260246000fd5b600061256f82611f9a565b915061257a83611f9a565b925082820190508082111561259257612591612353565b5b92915050565b60008160011c9050919050565b6000808291508390505b60018511156125ef578086048111156125cb576125ca612353565b5b60018516156125da5780820291505b80810290506125e885612598565b94506125af565b94509492505050565b60008261260857600190506126c4565b8161261657600090506126c4565b816001811461262c576002811461263657612665565b60019150506126c4565b60ff84111561264857612647612353565b5b8360020a91508482111561265f5761265e612353565b5b506126c4565b5060208310610133831016604e8410600b841016171561269a5782820a90508381111561269557612694612353565b5b6126c4565b6126a784848460016125a5565b925090508184048111156126be576126bd612353565b5b81810290505b9392505050565b60006126d682611f9a565b91506126e183611f9a565b925061270e7fffffffffffffffffffffffffffffffffffffffffffffffffffffffffffffffff84846125f8565b905092915050565b7f4e487b7100000000000000000000000000000000000000000000000000000000600052604160045260246000fd5b600061275082611f9a565b915061275b83611f9a565b925082820261276981611f9a565b915082820484148315176127805761277f612353565b5b5092915050565b600060029050919050565b600081905092915050565b6000819050919050565b6127b081611f9a565b82525050565b60006127c283836127a7565b60208301905092915050565b6000602082019050919050565b6127e481612787565b6127ee8184612792565b92506127f98261279d565b8060005b8381101561282a57815161281187826127b6565b965061281c836127ce565b9250506001810190506127fd565b505050505050565b600060408201905061284760008301846127db565b92915050565b60008151905061285c81611fa4565b92915050565b60006020828403121561287857612877611f90565b5b60006128868482850161284d565b9150509291505056fea264697066735822122033a27a3f8325ffab34150d17ba4142cd61fccf86a5720a8dd18218a7138847da64736f6c634300081c0033",
  "linkReferences": {
    "poseidon-solidity/PoseidonT3.sol": {
      "PoseidonT3": [
        {
          "length": 20,
          "start": 5338
        },
        {
          "length": 20,
          "start": 6188
        },
        {
          "length": 20,
          "start": 6948
        },
        {
          "length": 20,
          "start": 7115
        },
        {
          "length": 20,
          "start": 7475
        },
        {
          "length": 20,
          "start": 7642
        }
      ]
    }
  },
  "deployedLinkReferences": {
    "poseidon-solidity/PoseidonT3.sol": {
      "PoseidonT3": [
        {
          "length": 20,
          "start": 5307
        },
        {
          "length": 20,
          "start": 6157
        },
        {
          "length": 20,
          "start": 6917
        },
        {
          "length": 20,
          "start": 7084
        },
        {
          "length": 20,
          "start": 7444
        },
        {
          "length": 20,
          "start": 7611
        }
      ]
    }
  }
}