{
  "_format": "hh-sol-artifact-1",
  "contractName": "Manager",
  "sourceName": "contracts/Manager.sol",
  "abi": [
    {
      "inputs": [],
      "name": "LeafAlreadyExists",
      "type": "error"
    },
    {
      "inputs": [],
      "name": "LeafCannotBeZero",
      "type": "error"
    },
    {
      "inputs": [],
      "name": "LeafDoesNotExist",
      "type": "error"
    },
    {
      "inputs": [],
      "name": "LeafGreaterThanSnarkScalarField",
      "type": "error"
    },
    {
      "inputs": [],
      "name": "Manager__AlreadyRegistered",
      "type": "error"
    },
    {
      "inputs": [],
      "name": "Semaphore__CallerIsNotTheGroupAdmin",
      "type": "error"
    },
    {
      "inputs": [],
      "name": "Semaphore__CallerIsNotThePendingGroupAdmin",
      "type": "error"
    },
    {
      "inputs": [],
      "name": "Semaphore__GroupDoesNotExist",
      "type": "error"
    },
    {
      "inputs": [],
      "name": "WrongSiblingNodes",
      "type": "error"
    },
    {
      "anonymous": false,
      "inputs": [
        {
          "indexed": true,
          "internalType": "uint256",
          "name": "groupId",
          "type": "uint256"
        },
        {
          "indexed": true,
          "internalType": "address",
          "name": "oldAdmin",
          "type": "address"
        },
        {
          "indexed": true,
          "internalType": "address",
          "name": "newAdmin",
          "type": "address"
        }
      ],
      "name": "GroupAdminPending",
      "type": "event"
    },
    {
      "anonymous": false,
      "inputs": [
        {
          "indexed": true,
          "internalType": "uint256",
          "name": "groupId",
          "type": "uint256"
        },
        {
          "indexed": true,
          "internalType": "address",
          "name": "oldAdmin",
          "type": "address"
        },
        {
          "indexed": true,
          "internalType": "address",
          "name": "newAdmin",
          "type": "address"
        }
      ],
      "name": "GroupAdminUpdated",
      "type": "event"
    },
    {
      "anonymous": false,
      "inputs": [
        {
          "indexed": true,
          "internalType": "uint256",
          "name": "groupId",
          "type": "uint256"
        }
      ],
      "name": "GroupCreated",
      "type": "event"
    },
    {
      "anonymous": false,
      "inputs": [
        {
          "indexed": true,
          "internalType": "address",
          "name": "manager",
          "type": "address"
        },
        {
          "indexed": true,
          "internalType": "uint256",
          "name": "groupId",
          "type": "uint256"
        }
      ],
      "name": "ManagerRegistered",
      "type": "event"
    },
    {
      "anonymous": false,
      "inputs": [
        {
          "indexed": true,
          "internalType": "uint256",
          "name": "groupId",
          "type": "uint256"
        },
        {
          "indexed": false,
          "internalType": "uint256",
          "name": "index",
          "type": "uint256"
        },
        {
          "indexed": false,
          "internalType": "uint256",
          "name": "identityCommitment",
          "type": "uint256"
        },
        {
          "indexed": false,
          "internalType": "uint256",
          "name": "merkleTreeRoot",
          "type": "uint256"
        }
      ],
      "name": "MemberAdded",
      "type": "event"
    },
    {
      "anonymous": false,
      "inputs": [
        {
          "indexed": true,
          "internalType": "uint256",
          "name": "groupId",
          "type": "uint256"
        },
        {
          "indexed": false,
          "internalType": "uint256",
          "name": "index",
          "type": "uint256"
        },
        {
          "indexed": false,
          "internalType": "uint256",
          "name": "identityCommitment",
          "type": "uint256"
        },
        {
          "indexed": false,
          "internalType": "uint256",
          "name": "merkleTreeRoot",
          "type": "uint256"
        }
      ],
      "name": "MemberRemoved",
      "type": "event"
    },
    {
      "anonymous": false,
      "inputs": [
        {
          "indexed": true,
          "internalType": "uint256",
          "name": "groupId",
          "type": "uint256"
        },
        {
          "indexed": false,
          "internalType": "uint256",
          "name": "index",
          "type": "uint256"
        },
        {
          "indexed": false,
          "internalType": "uint256",
          "name": "identityCommitment",
          "type": "uint256"
        },
        {
          "indexed": false,
          "internalType": "uint256",
          "name": "newIdentityCommitment",
          "type": "uint256"
        },
        {
          "indexed": false,
          "internalType": "uint256",
          "name": "merkleTreeRoot",
          "type": "uint256"
        }
      ],
      "name": "MemberUpdated",
      "type": "event"
    },
    {
      "anonymous": false,
      "inputs": [
        {
          "indexed": true,
          "internalType": "uint256",
          "name": "groupId",
          "type": "uint256"
        },
        {
          "indexed": false,
          "internalType": "uint256",
          "name": "startIndex",
          "type": "uint256"
        },
        {
          "indexed": false,
          "internalType": "uint256[]",
          "name": "identityCommitments",
          "type": "uint256[]"
        },
        {
          "indexed": false,
          "internalType": "uint256",
          "name": "merkleTreeRoot",
          "type": "uint256"
        }
      ],
      "name": "MembersAdded",
      "type": "event"
    },
    {
      "inputs": [
        {
          "internalType": "uint256",
          "name": "groupId",
          "type": "uint256"
        }
      ],
      "name": "acceptGroupManager",
      "outputs": [],
      "stateMutability": "nonpayable",
      "type": "function"
    },
    {
      "inputs": [
        {
          "internalType": "uint256",
          "name": "groupId",
          "type": "uint256"
        },
        {
          "internalType": "uint256",
          "name": "identityCommitment",
          "type": "uint256"
        }
      ],
      "name": "addMember",
      "outputs": [],
      "stateMutability": "nonpayable",
      "type": "function"
    },
    {
      "inputs": [
        {
          "internalType": "uint256",
          "name": "groupId",
          "type": "uint256"
        },
        {
          "internalType": "uint256[]",
          "name": "identityCommitments",
          "type": "uint256[]"
        }
      ],
      "name": "addMembers",
      "outputs": [],
      "stateMutability": "nonpayable",
      "type": "function"
    },
    {
      "inputs": [
        {
          "internalType": "uint256",
          "name": "groupId",
          "type": "uint256"
        }
      ],
      "name": "getGroupAdmin",
      "outputs": [
        {
          "internalType": "address",
          "name": "",
          "type": "address"
        }
      ],
      "stateMutability": "view",
      "type": "function"
    },
    {
      "inputs": [
        {
          "internalType": "uint256",
          "name": "groupId",
          "type": "uint256"
        }
      ],
      "name": "getGroupManager",
      "outputs": [
        {
          "internalType": "address",
          "name": "",
          "type": "address"
        }
      ],
      "stateMutability": "view",
      "type": "function"
    },
    {
      "inputs": [
        {
          "internalType": "uint256",
          "name": "groupId",
          "type": "uint256"
        }
      ],
      "name": "getMerkleTreeDepth",
      "outputs": [
        {
          "internalType": "uint256",
          "name": "",
          "type": "uint256"
        }
      ],
      "stateMutability": "view",
      "type": "function"
    },
    {
      "inputs": [
        {
          "internalType": "uint256",
          "name": "groupId",
          "type": "uint256"
        }
      ],
      "name": "getMerkleTreeRoot",
      "outputs": [
        {
          "internalType": "uint256",
          "name": "",
          "type": "uint256"
        }
      ],
      "stateMutability": "view",
      "type": "function"
    },
    {
      "inputs": [
        {
          "internalType": "uint256",
          "name": "groupId",
          "type": "uint256"
        }
      ],
      "name": "getMerkleTreeSize",
      "outputs": [
        {
          "internalType": "uint256",
          "name": "",
          "type": "uint256"
        }
      ],
      "stateMutability": "view",
      "type": "function"
    },
    {
      "inputs": [],
      "name": "groupCounter",
      "outputs": [
        {
          "internalType": "uint256",
          "name": "",
          "type": "uint256"
        }
      ],
      "stateMutability": "view",
      "type": "function"
    },
    {
      "inputs": [
        {
          "internalType": "uint256",
          "name": "groupId",
          "type": "uint256"
        },
        {
          "internalType": "uint256",
          "name": "identityCommitment",
          "type": "uint256"
        }
      ],
      "name": "hasMember",
      "outputs": [
        {
          "internalType": "bool",
          "name": "",
          "type": "bool"
        }
      ],
      "stateMutability": "view",
      "type": "function"
    },
    {
      "inputs": [
        {
          "internalType": "uint256",
          "name": "groupId",
          "type": "uint256"
        },
        {
          "internalType": "uint256",
          "name": "identityCommitment",
          "type": "uint256"
        }
      ],
      "name": "indexOf",
      "outputs": [
        {
          "internalType": "uint256",
          "name": "",
          "type": "uint256"
        }
      ],
      "stateMutability": "view",
      "type": "function"
    },
    {
      "inputs": [
        {
          "internalType": "address",
          "name": "manager",
          "type": "address"
        }
      ],
      "name": "managers",
      "outputs": [
        {
          "components": [
            {
              "internalType": "bool",
              "name": "isRegistered",
              "type": "bool"
            },
            {
              "internalType": "uint256",
              "name": "groupId",
              "type": "uint256"
            }
          ],
          "internalType": "struct IManager.ManagerData",
          "name": "",
          "type": "tuple"
        }
      ],
      "stateMutability": "view",
      "type": "function"
    },
    {
      "inputs": [],
      "name": "register",
      "outputs": [
        {
          "internalType": "uint256",
          "name": "groupId",
          "type": "uint256"
        }
      ],
      "stateMutability": "nonpayable",
      "type": "function"
    },
    {
      "inputs": [
        {
          "internalType": "uint256",
          "name": "groupId",
          "type": "uint256"
        },
        {
          "internalType": "uint256",
          "name": "identityCommitment",
          "type": "uint256"
        },
        {
          "internalType": "uint256[]",
          "name": "merkleProofSiblings",
          "type": "uint256[]"
        }
      ],
      "name": "removeMember",
      "outputs": [],
      "stateMutability": "nonpayable",
      "type": "function"
    },
    {
      "inputs": [
        {
          "internalType": "uint256",
          "name": "groupId",
          "type": "uint256"
        },
        {
          "internalType": "address",
          "name": "newManager",
          "type": "address"
        }
      ],
      "name": "updateGroupManager",
      "outputs": [],
      "stateMutability": "nonpayable",
      "type": "function"
    },
    {
      "inputs": [
        {
          "internalType": "uint256",
          "name": "groupId",
          "type": "uint256"
        },
        {
          "internalType": "uint256",
          "name": "oldIdentityCommitment",
          "type": "uint256"
        },
        {
          "internalType": "uint256",
          "name": "newIdentityCommitment",
          "type": "uint256"
        },
        {
          "internalType": "uint256[]",
          "name": "merkleProofSiblings",
          "type": "uint256[]"
        }
      ],
      "name": "updateMember",
      "outputs": [],
      "stateMutability": "nonpayable",
      "type": "function"
    }
  ],
  "bytecode": "0x6080604052348015600f57600080fd5b50612b1f8061001f6000396000f3fe608060405234801561001057600080fd5b50600436106101005760003560e01c80637ee35a0c11610097578063d24924fe11610066578063d24924fe146102cf578063dabc4d51146102ed578063f4bae6851461031d578063fdff9b4d1461033957610100565b80637ee35a0c1461020f57806390509d441461023f578063954a85b41461026f578063a9961c941461029f57610100565b80634178c4d5116100d35780634178c4d51461018b5780636389e107146101a75780636cdd32fe146101d75780636e5d4aa9146101f357610100565b8063042453711461010557806306dd8485146101215780631783efc3146101515780631aa3a0081461016d575b600080fd5b61011f600480360381019061011a9190612227565b610369565b005b61013b60048036038101906101369190612287565b6103b6565b60405161014891906122d6565b60405180910390f35b61016b60048036038101906101669190612287565b6103e4565b005b61017561042f565b60405161018291906122d6565b60405180910390f35b6101a560048036038101906101a091906122f1565b610696565b005b6101c160048036038101906101bc9190612379565b6106e7565b6040516101ce91906122d6565b60405180910390f35b6101f160048036038101906101ec91906123a6565b610706565b005b61020d60048036038101906102089190612379565b610755565b005b61022960048036038101906102249190612379565b61079d565b60405161023691906122d6565b60405180910390f35b61025960048036038101906102549190612287565b6107bc565b6040516102669190612435565b60405180910390f35b61028960048036038101906102849190612379565b6107ea565b6040516102969190612491565b60405180910390f35b6102b960048036038101906102b49190612379565b610863565b6040516102c69190612491565b60405180910390f35b6102d76108a0565b6040516102e491906122d6565b60405180910390f35b61030760048036038101906103029190612379565b6108a6565b60405161031491906122d6565b60405180910390f35b610337600480360381019061033291906124d8565b6108f4565b005b610353600480360381019061034e9190612518565b61093e565b6040516103609190612592565b60405180910390f35b61037d6784e850fa56bfbbda60c01b6109f8565b61039167a7e92fda118eafe360c01b6109f8565b6103a56795fb4f0e09926f6060c01b6109f8565b6103b08383836109fb565b50505050565b60006103dc82600080868152602001908152602001600020610b1290919063ffffffff16565b905092915050565b6103f867c2b43d0c8ad4221460c01b6109f8565b61040c67f4c6e9297b5c479760c01b6109f8565b61042067fa2d2577499baaf860c01b6109f8565b61042a8282610b8c565b505050565b600061044567acc225a43f484b9c60c01b6109f8565b61045967be700edff2f18a9360c01b6109f8565b61046d677c6db8d503ccbe6360c01b6109f8565b600460003373ffffffffffffffffffffffffffffffffffffffff1673ffffffffffffffffffffffffffffffffffffffff16815260200190815260200160002060000160009054906101000a900460ff161561051c576104d6679889a8ec42a3908960c01b6109f8565b6104ea67aad4dfd8505c8c3160c01b6109f8565b6040517fec76d3cf00000000000000000000000000000000000000000000000000000000815260040160405180910390fd5b61053067f579e99f889eb1a860c01b6109f8565b61054467e34e71e0e52a6acb60c01b6109f8565b60036000815480929190610557906125dc565b91905055905061057167056f485d38afdaa760c01b6109f8565b61058567b985965f5cfe254760c01b6109f8565b61058f8133610c9e565b6105a3674cf43f6a1698849560c01b6109f8565b604051806040016040528060011515815260200182815250600460003373ffffffffffffffffffffffffffffffffffffffff1673ffffffffffffffffffffffffffffffffffffffff16815260200190815260200160002060008201518160000160006101000a81548160ff0219169083151502179055506020820151816001015590505061063b675c04082638a2a49d60c01b6109f8565b61064f67bf84f67d17934bda60c01b6109f8565b803373ffffffffffffffffffffffffffffffffffffffff167ff643b5f5fc17eb9ba792088debfbea2fe607396836249e72ee0ecf7b18a055c360405160405180910390a390565b6106aa671ab820afc9f7f7be60c01b6109f8565b6106be6703cd7c9d2e471cb460c01b6109f8565b6106d26759c0fa15e85caa3b60c01b6109f8565b6106df8585858585610d7d565b505050505050565b6000806000838152602001908152602001600020600101549050919050565b61071a677b5d0845db314b8a60c01b6109f8565b61072e67d00fb9f2e9549e5960c01b6109f8565b6107426774be945097ea1cf260c01b6109f8565b61074e84848484610eb5565b5050505050565b61076967626f16914b187a6f60c01b6109f8565b61077d674752729508efb3b560c01b6109f8565b61079167e7a0a762b2cb639560c01b6109f8565b61079a81610fe8565b50565b6000806000838152602001908152602001600020600001549050919050565b60006107e28260008086815260200190815260200160002061119f90919063ffffffff16565b905092915050565b6000610800679707b652d311287f60c01b6109f8565b6108146725b28725ddefe1e160c01b6109f8565b610828674a2e9c4ab2d46b8460c01b6109f8565b6001600083815260200190815260200160002060009054906101000a900473ffffffffffffffffffffffffffffffffffffffff169050919050565b60006001600083815260200190815260200160002060009054906101000a900473ffffffffffffffffffffffffffffffffffffffff169050919050565b60035481565b60006108bc676df5bd94058b9d5260c01b6109f8565b6108d0677f04c36c035c3da560c01b6109f8565b6108e4671f2d976482efe56360c01b6109f8565b6108ed826111c2565b9050919050565b61090867ee2367a57984b6ca60c01b6109f8565b61091c676c1e017a15fd1ec660c01b6109f8565b61093067e3829f487ebd65fd60c01b6109f8565b61093a82826111e5565b5050565b610946612166565b61095a67226ba10e3643456360c01b6109f8565b61096e67cbaa58b6a4eb0ca860c01b6109f8565b610982677abcae17230ba28960c01b6109f8565b600460008373ffffffffffffffffffffffffffffffffffffffff1673ffffffffffffffffffffffffffffffffffffffff1681526020019081526020016000206040518060400160405290816000820160009054906101000a900460ff161515151581526020016001820154815250509050919050565b50565b6000833373ffffffffffffffffffffffffffffffffffffffff166001600083815260200190815260200160002060009054906101000a900473ffffffffffffffffffffffffffffffffffffffff1673ffffffffffffffffffffffffffffffffffffffff1614610a96576040517fbb9bf27800000000000000000000000000000000000000000000000000000000815260040160405180910390fd5b6000610aa18661079d565b9050610ac985856000808a81526020019081526020016000206113309092919063ffffffff16565b9250857f61e5e8054e3daf084a0c6c646c065e8bf5e7ca4d5567bda942309bd1652f349d82878787604051610b01949392919061269f565b60405180910390a250509392505050565b6000808360030160008481526020019081526020016000205403610b62576040517f7204756c00000000000000000000000000000000000000000000000000000000815260040160405180910390fd5b600183600301600084815260200190815260200160002054610b8491906126df565b905092915050565b6000823373ffffffffffffffffffffffffffffffffffffffff166001600083815260200190815260200160002060009054906101000a900473ffffffffffffffffffffffffffffffffffffffff1673ffffffffffffffffffffffffffffffffffffffff1614610c27576040517fbb9bf27800000000000000000000000000000000000000000000000000000000815260040160405180910390fd5b6000610c328561079d565b9050610c588460008088815260200190815260200160002061191490919063ffffffff16565b9250847f19239b3f93cd10558aaf11423af70c77763bf54f52bcc75bfa74d4d13548cde9828686604051610c8e93929190612713565b60405180910390a2505092915050565b806001600084815260200190815260200160002060006101000a81548173ffffffffffffffffffffffffffffffffffffffff021916908373ffffffffffffffffffffffffffffffffffffffff160217905550817ff0adfb94eab6daf835deb69c5738fe636150c3dfd08094a76f39b963dc8cb05a60405160405180910390a28073ffffffffffffffffffffffffffffffffffffffff16600073ffffffffffffffffffffffffffffffffffffffff16837f0ba83579a0e79193ef649b9f5a8759d35af086ba62a3e207b52e4a8ae30d49e360405160405180910390a45050565b6000853373ffffffffffffffffffffffffffffffffffffffff166001600083815260200190815260200160002060009054906101000a900473ffffffffffffffffffffffffffffffffffffffff1673ffffffffffffffffffffffffffffffffffffffff1614610e18576040517fbb9bf27800000000000000000000000000000000000000000000000000000000815260040160405180910390fd5b6000610e3e876000808b8152602001908152602001600020610b1290919063ffffffff16565b9050610e6a878787876000808e8152602001908152602001600020611b7390949392919063ffffffff16565b9250877fea3588e4a2a0c93d6a0e69dfeaf7496f43ccccf02ad9ce0a5b7627cbca4b61b182898987604051610ea2949392919061274a565b60405180910390a2505095945050505050565b6000843373ffffffffffffffffffffffffffffffffffffffff166001600083815260200190815260200160002060009054906101000a900473ffffffffffffffffffffffffffffffffffffffff1673ffffffffffffffffffffffffffffffffffffffff1614610f50576040517fbb9bf27800000000000000000000000000000000000000000000000000000000815260040160405180910390fd5b6000610f76866000808a8152602001908152602001600020610b1290919063ffffffff16565b9050610fa08686866000808c8152602001908152602001600020612129909392919063ffffffff16565b9250867f3108849c053c77b8073a11256dffb5ffd5b55e93e105a355e1c9061db890d871828886604051610fd693929190612713565b60405180910390a25050949350505050565b3373ffffffffffffffffffffffffffffffffffffffff166002600083815260200190815260200160002060009054906101000a900473ffffffffffffffffffffffffffffffffffffffff1673ffffffffffffffffffffffffffffffffffffffff1614611080576040517f34c4245d00000000000000000000000000000000000000000000000000000000815260040160405180910390fd5b60006001600083815260200190815260200160002060009054906101000a900473ffffffffffffffffffffffffffffffffffffffff169050336001600084815260200190815260200160002060006101000a81548173ffffffffffffffffffffffffffffffffffffffff021916908373ffffffffffffffffffffffffffffffffffffffff1602179055506002600083815260200190815260200160002060006101000a81549073ffffffffffffffffffffffffffffffffffffffff02191690553373ffffffffffffffffffffffffffffffffffffffff168173ffffffffffffffffffffffffffffffffffffffff16837f0ba83579a0e79193ef649b9f5a8759d35af086ba62a3e207b52e4a8ae30d49e360405160405180910390a45050565b600080836003016000848152602001908152602001600020541415905092915050565b60006111de600080848152602001908152602001600020612143565b9050919050565b813373ffffffffffffffffffffffffffffffffffffffff166001600083815260200190815260200160002060009054906101000a900473ffffffffffffffffffffffffffffffffffffffff1673ffffffffffffffffffffffffffffffffffffffff161461127e576040517fbb9bf27800000000000000000000000000000000000000000000000000000000815260040160405180910390fd5b816002600085815260200190815260200160002060006101000a81548173ffffffffffffffffffffffffffffffffffffffff021916908373ffffffffffffffffffffffffffffffffffffffff1602179055508173ffffffffffffffffffffffffffffffffffffffff163373ffffffffffffffffffffffffffffffffffffffff16847f1018365553cce55d9cb02ef73e18cc9311894f3fe1d1eafd235ac2d26cd8ba5860405160405180910390a4505050565b6000808460000154905060005b848490508110156114bc577f30644e72e131a029b85045b68181585d2833e84879b9709143e1f593f000000185858381811061137c5761137b61278f565b5b90506020020135106113ba576040517fc380a82e00000000000000000000000000000000000000000000000000000000815260040160405180910390fd5b60008585838181106113cf576113ce61278f565b5b905060200201350361140d576040517f29691be200000000000000000000000000000000000000000000000000000000815260040160405180910390fd5b611430868686848181106114245761142361278f565b5b9050602002013561119f565b15611467576040517f258a195a00000000000000000000000000000000000000000000000000000000815260040160405180910390fd5b8060018361147591906127be565b61147f91906127be565b8660030160008787858181106114985761149761278f565b5b9050602002013581526020019081526020016000208190555080600101905061133d565b506060848480806020026020016040519081016040528093929190818152602001838360200280828437600081840152601f19601f8201169050808301925050505050505090506000866001015490505b858590508361151c91906127be565b8160026115299190612925565b10156115405780611539906125dc565b905061150d565b80876001018190555060008390506000878790508561155f91906127be565b90506000600183901c9050600060018060018561157c91906126df565b901c61158891906127be565b905060005b8581101561189b57600083836115a391906126df565b905060008167ffffffffffffffff8111156115c1576115c0612970565b5b6040519080825280602002602001820160405280156115ef5781602001602082028036833780820191505090505b50905060005b828110156117c2576000886002888461160e91906127be565b611618919061299f565b101561163b578f600201600086815260200190815260200160002054905061167b565b8a896002898561164b91906127be565b611655919061299f565b61165f91906126df565b815181106116705761166f61278f565b5b602002602001015190505b600088600160028a8661168e91906127be565b611698919061299f565b6116a291906127be565b10156116f4578b8a600160028b876116ba91906127be565b6116c4919061299f565b6116ce91906127be565b6116d891906126df565b815181106116e9576116e861278f565b5b602002602001015190505b60008082146117905773__$75f79a42d9bcbdbb69ad79ebd80f556f39$__63561558fe6040518060400160405280868152602001858152506040518263ffffffff1660e01b81526004016117489190612a8c565b602060405180830381865af4158015611765573d6000803e3d6000fd5b505050506040513d601f19601f820116820180604052508101906117899190612abc565b9050611794565b8290505b808585815181106117a8576117a761278f565b5b6020026020010181815250508360010193505050506115f5565b50600180871603611813578860018a516117dc91906126df565b815181106117ed576117ec61278f565b5b60200260200101518e600201600085815260200190815260200160002081905550611860565b60018951111561185f578860028a5161182c91906126df565b8151811061183d5761183c61278f565b5b60200260200101518e6002016000858152602001908152602001600020819055505b5b849650600185901c945080985083955060018060018661188091906126df565b901c61188c91906127be565b9350826001019250505061158d565b5089899050876118ab91906127be565b8b60000181905550856000815181106118c7576118c661278f565b5b60200260200101518b600201600087815260200190815260200160002081905550856000815181106118fc576118fb61278f565b5b60200260200101519750505050505050509392505050565b60007f30644e72e131a029b85045b68181585d2833e84879b9709143e1f593f0000001821061196f576040517fc380a82e00000000000000000000000000000000000000000000000000000000815260040160405180910390fd5b600082036119a9576040517f29691be200000000000000000000000000000000000000000000000000000000815260040160405180910390fd5b6119b3838361119f565b156119ea576040517f258a195a00000000000000000000000000000000000000000000000000000000815260040160405180910390fd5b600083600001549050600084600101549050600182611a0991906127be565b816002611a169190612925565b1015611a295780611a26906125dc565b90505b808560010181905550600084905060005b82811015611b1d576001808286901c1603611af75773__$75f79a42d9bcbdbb69ad79ebd80f556f39$__63561558fe60405180604001604052808a6002016000868152602001908152602001600020548152602001858152506040518263ffffffff1660e01b8152600401611aaf9190612a8c565b602060405180830381865af4158015611acc573d6000803e3d6000fd5b505050506040513d601f19601f82011682018060405250810190611af09190612abc565b9150611b12565b81876002016000838152602001908152602001600020819055505b806001019050611a3a565b5082611b28906125dc565b92508286600001819055508086600201600084815260200190815260200160002081905550828660030160008781526020019081526020016000208190555080935050505092915050565b60007f30644e72e131a029b85045b68181585d2833e84879b9709143e1f593f00000018410611bce576040517fc380a82e00000000000000000000000000000000000000000000000000000000815260040160405180910390fd5b611bd8868661119f565b611c0e576040517f7204756c00000000000000000000000000000000000000000000000000000000815260040160405180910390fd5b611c18868561119f565b15611c4f576040517f258a195a00000000000000000000000000000000000000000000000000000000815260040160405180910390fd5b6000611c5b8787610b12565b905060008590506000879050600060018a60000154611c7a91906126df565b90506000808b60010154905060005b81811015612068576001808289901c1603611e69577f30644e72e131a029b85045b68181585d2833e84879b9709143e1f593f00000018a8a85818110611cd257611cd161278f565b5b9050602002013510611d10576040517fc380a82e00000000000000000000000000000000000000000000000000000000815260040160405180910390fd5b73__$75f79a42d9bcbdbb69ad79ebd80f556f39$__63561558fe60405180604001604052808d8d88818110611d4857611d4761278f565b5b905060200201358152602001898152506040518263ffffffff1660e01b8152600401611d749190612a8c565b602060405180830381865af4158015611d91573d6000803e3d6000fd5b505050506040513d601f19601f82011682018060405250810190611db59190612abc565b955073__$75f79a42d9bcbdbb69ad79ebd80f556f39$__63561558fe60405180604001604052808d8d88818110611def57611dee61278f565b5b905060200201358152602001888152506040518263ffffffff1660e01b8152600401611e1b9190612a8c565b602060405180830381865af4158015611e38573d6000803e3d6000fd5b505050506040513d601f19601f82011682018060405250810190611e5c9190612abc565b945082600101925061205d565b8084901c8188901c14612041577f30644e72e131a029b85045b68181585d2833e84879b9709143e1f593f00000018a8a85818110611eaa57611ea961278f565b5b9050602002013510611ee8576040517fc380a82e00000000000000000000000000000000000000000000000000000000815260040160405180910390fd5b73__$75f79a42d9bcbdbb69ad79ebd80f556f39$__63561558fe60405180604001604052808981526020018d8d88818110611f2657611f2561278f565b5b905060200201358152506040518263ffffffff1660e01b8152600401611f4c9190612a8c565b602060405180830381865af4158015611f69573d6000803e3d6000fd5b505050506040513d601f19601f82011682018060405250810190611f8d9190612abc565b955073__$75f79a42d9bcbdbb69ad79ebd80f556f39$__63561558fe60405180604001604052808881526020018d8d88818110611fcd57611fcc61278f565b5b905060200201358152506040518263ffffffff1660e01b8152600401611ff39190612a8c565b602060405180830381865af4158015612010573d6000803e3d6000fd5b505050506040513d601f19601f820116820180604052508101906120349190612abc565b945082600101925061205c565b858d6002016000858152602001908152602001600020819055505b5b806001019050611c89565b506120728c612143565b84146120aa576040517f3fa930c600000000000000000000000000000000000000000000000000000000815260040160405180910390fd5b848c60020160008381526020019081526020016000208190555060008a146120fc578b60030160008c8152602001908152602001600020548c60030160008c8152602001908152602001600020819055505b60008c60030160008d81526020019081526020016000208190555084965050505050505095945050505050565b6000612139858560008686611b73565b9050949350505050565b600081600201600083600101548152602001908152602001600020549050919050565b6040518060400160405280600015158152602001600081525090565b600080fd5b600080fd5b6000819050919050565b61219f8161218c565b81146121aa57600080fd5b50565b6000813590506121bc81612196565b92915050565b600080fd5b600080fd5b600080fd5b60008083601f8401126121e7576121e66121c2565b5b8235905067ffffffffffffffff811115612204576122036121c7565b5b6020830191508360208202830111156122205761221f6121cc565b5b9250929050565b6000806000604084860312156122405761223f612182565b5b600061224e868287016121ad565b935050602084013567ffffffffffffffff81111561226f5761226e612187565b5b61227b868287016121d1565b92509250509250925092565b6000806040838503121561229e5761229d612182565b5b60006122ac858286016121ad565b92505060206122bd858286016121ad565b9150509250929050565b6122d08161218c565b82525050565b60006020820190506122eb60008301846122c7565b92915050565b60008060008060006080868803121561230d5761230c612182565b5b600061231b888289016121ad565b955050602061232c888289016121ad565b945050604061233d888289016121ad565b935050606086013567ffffffffffffffff81111561235e5761235d612187565b5b61236a888289016121d1565b92509250509295509295909350565b60006020828403121561238f5761238e612182565b5b600061239d848285016121ad565b91505092915050565b600080600080606085870312156123c0576123bf612182565b5b60006123ce878288016121ad565b94505060206123df878288016121ad565b935050604085013567ffffffffffffffff811115612400576123ff612187565b5b61240c878288016121d1565b925092505092959194509250565b60008115159050919050565b61242f8161241a565b82525050565b600060208201905061244a6000830184612426565b92915050565b600073ffffffffffffffffffffffffffffffffffffffff82169050919050565b600061247b82612450565b9050919050565b61248b81612470565b82525050565b60006020820190506124a66000830184612482565b92915050565b6124b581612470565b81146124c057600080fd5b50565b6000813590506124d2816124ac565b92915050565b600080604083850312156124ef576124ee612182565b5b60006124fd858286016121ad565b925050602061250e858286016124c3565b9150509250929050565b60006020828403121561252e5761252d612182565b5b600061253c848285016124c3565b91505092915050565b61254e8161241a565b82525050565b61255d8161218c565b82525050565b6040820160008201516125796000850182612545565b50602082015161258c6020850182612554565b50505050565b60006040820190506125a76000830184612563565b92915050565b7f4e487b7100000000000000000000000000000000000000000000000000000000600052601160045260246000fd5b60006125e78261218c565b91507fffffffffffffffffffffffffffffffffffffffffffffffffffffffffffffffff8203612619576126186125ad565b5b600182019050919050565b600082825260208201905092915050565b600080fd5b82818337505050565b600061264f8385612624565b93507f07ffffffffffffffffffffffffffffffffffffffffffffffffffffffffffffff83111561268257612681612635565b5b60208302925061269383858461263a565b82840190509392505050565b60006060820190506126b460008301876122c7565b81810360208301526126c7818587612643565b90506126d660408301846122c7565b95945050505050565b60006126ea8261218c565b91506126f58361218c565b925082820390508181111561270d5761270c6125ad565b5b92915050565b600060608201905061272860008301866122c7565b61273560208301856122c7565b61274260408301846122c7565b949350505050565b600060808201905061275f60008301876122c7565b61276c60208301866122c7565b61277960408301856122c7565b61278660608301846122c7565b95945050505050565b7f4e487b7100000000000000000000000000000000000000000000000000000000600052603260045260246000fd5b60006127c98261218c565b91506127d48361218c565b92508282019050808211156127ec576127eb6125ad565b5b92915050565b60008160011c9050919050565b6000808291508390505b600185111561284957808604811115612825576128246125ad565b5b60018516156128345780820291505b8081029050612842856127f2565b9450612809565b94509492505050565b600082612862576001905061291e565b81612870576000905061291e565b81600181146128865760028114612890576128bf565b600191505061291e565b60ff8411156128a2576128a16125ad565b5b8360020a9150848211156128b9576128b86125ad565b5b5061291e565b5060208310610133831016604e8410600b84101617156128f45782820a9050838111156128ef576128ee6125ad565b5b61291e565b61290184848460016127ff565b92509050818404811115612918576129176125ad565b5b81810290505b9392505050565b60006129308261218c565b915061293b8361218c565b92506129687fffffffffffffffffffffffffffffffffffffffffffffffffffffffffffffffff8484612852565b905092915050565b7f4e487b7100000000000000000000000000000000000000000000000000000000600052604160045260246000fd5b60006129aa8261218c565b91506129b58361218c565b92508282026129c38161218c565b915082820484148315176129da576129d96125ad565b5b5092915050565b600060029050919050565b600081905092915050565b6000819050919050565b612a0a8161218c565b82525050565b6000612a1c8383612a01565b60208301905092915050565b6000602082019050919050565b612a3e816129e1565b612a4881846129ec565b9250612a53826129f7565b8060005b83811015612a84578151612a6b8782612a10565b9650612a7683612a28565b925050600181019050612a57565b505050505050565b6000604082019050612aa16000830184612a35565b92915050565b600081519050612ab681612196565b92915050565b600060208284031215612ad257612ad1612182565b5b6000612ae084828501612aa7565b9150509291505056fea2646970667358221220d28f57bbf7a255b242adca7eef39dbdd44e4f58307bfbdf6ef3bb9a41e035fff64736f6c634300081c0033",
  "linkReferences": {
    "poseidon-solidity/PoseidonT3.sol": {
      "PoseidonT3": [
        {
          "length": 20,
          "start": 5918
        },
        {
          "length": 20,
          "start": 6768
        },
        {
          "length": 20,
          "start": 7473
        },
        {
          "length": 20,
          "start": 7640
        },
        {
          "length": 20,
          "start": 7945
        },
        {
          "length": 20,
          "start": 8112
        }
      ]
    }
  },
  "deployedLinkReferences": {
    "poseidon-solidity/PoseidonT3.sol": {
      "PoseidonT3": [
        {
          "length": 20,
          "start": 5887
        },
        {
          "length": 20,
          "start": 6737
        },
        {
          "length": 20,
          "start": 7442
        },
        {
          "length": 20,
          "start": 7609
        },
        {
          "length": 20,
          "start": 7914
        },
        {
          "length": 20,
          "start": 8081
        }
      ]
    }
  }
}