{
  "_format": "hh-sol-artifact-1",
  "contractName": "ServiceProvider",
  "sourceName": "contracts/ServiceProvider.sol",
  "abi": [
    {
      "inputs": [
        {
          "internalType": "address",
          "name": "_verifier",
          "type": "address"
        },
        {
          "internalType": "address",
          "name": "_manager",
          "type": "address"
        }
      ],
      "stateMutability": "nonpayable",
      "type": "constructor"
    },
    {
      "inputs": [],
      "name": "ServiceProvider__AlreadyRegistered",
      "type": "error"
    },
    {
      "inputs": [],
      "name": "ServiceProvider__GroupDoesNotExist",
      "type": "error"
    },
    {
      "inputs": [],
      "name": "ServiceProvider__InvalidMerkleTreeDepth",
      "type": "error"
    },
    {
      "inputs": [],
      "name": "ServiceProvider__InvalidProof",
      "type": "error"
    },
    {
      "inputs": [],
      "name": "ServiceProvider__InvalidTreeRoot",
      "type": "error"
    },
    {
      "inputs": [],
      "name": "ServiceProvider__ManagerNotApproved",
      "type": "error"
    },
    {
      "inputs": [],
      "name": "ServiceProvider__NotRegistered",
      "type": "error"
    },
    {
      "inputs": [],
      "name": "ServiceProvider__NullifierAlreadyUsed",
      "type": "error"
    },
    {
      "anonymous": false,
      "inputs": [
        {
          "indexed": true,
          "internalType": "uint256",
          "name": "groupId",
          "type": "uint256"
        },
        {
          "indexed": true,
          "internalType": "uint256",
          "name": "merkleTreeDepth",
          "type": "uint256"
        },
        {
          "indexed": true,
          "internalType": "uint256",
          "name": "merkleTreeRoot",
          "type": "uint256"
        },
        {
          "indexed": false,
          "internalType": "uint256",
          "name": "nullifier",
          "type": "uint256"
        },
        {
          "indexed": false,
          "internalType": "uint256",
          "name": "message",
          "type": "uint256"
        },
        {
          "indexed": false,
          "internalType": "uint256",
          "name": "scope",
          "type": "uint256"
        },
        {
          "indexed": false,
          "internalType": "uint256[8]",
          "name": "points",
          "type": "uint256[8]"
        }
      ],
      "name": "AccountVerified",
      "type": "event"
    },
    {
      "anonymous": false,
      "inputs": [
        {
          "indexed": true,
          "internalType": "uint256",
          "name": "serviceProviderId",
          "type": "uint256"
        },
        {
          "indexed": true,
          "internalType": "address",
          "name": "provider",
          "type": "address"
        }
      ],
      "name": "ServiceProviderRegistered",
      "type": "event"
    },
    {
      "inputs": [
        {
          "internalType": "uint256",
          "name": "groupId",
          "type": "uint256"
        },
        {
          "components": [
            {
              "internalType": "uint256",
              "name": "merkleTreeDepth",
              "type": "uint256"
            },
            {
              "internalType": "uint256",
              "name": "merkleTreeRoot",
              "type": "uint256"
            },
            {
              "internalType": "uint256",
              "name": "nullifier",
              "type": "uint256"
            },
            {
              "internalType": "uint256",
              "name": "message",
              "type": "uint256"
            },
            {
              "internalType": "uint256",
              "name": "scope",
              "type": "uint256"
            },
            {
              "internalType": "uint256[8]",
              "name": "points",
              "type": "uint256[8]"
            }
          ],
          "internalType": "struct IServiceProvider.SemaphoreProof",
          "name": "proof",
          "type": "tuple"
        }
      ],
      "name": "checkProof",
      "outputs": [
        {
          "internalType": "bool",
          "name": "",
          "type": "bool"
        }
      ],
      "stateMutability": "view",
      "type": "function"
    },
    {
      "inputs": [
        {
          "internalType": "address",
          "name": "provider",
          "type": "address"
        }
      ],
      "name": "getServiceProviderId",
      "outputs": [
        {
          "internalType": "uint256",
          "name": "",
          "type": "uint256"
        }
      ],
      "stateMutability": "view",
      "type": "function"
    },
    {
      "inputs": [
        {
          "internalType": "address",
          "name": "provider",
          "type": "address"
        },
        {
          "internalType": "uint256",
          "name": "managerId",
          "type": "uint256"
        }
      ],
      "name": "isApprovedManager",
      "outputs": [
        {
          "internalType": "bool",
          "name": "",
          "type": "bool"
        }
      ],
      "stateMutability": "view",
      "type": "function"
    },
    {
      "inputs": [
        {
          "internalType": "uint256",
          "name": "serviceProviderId",
          "type": "uint256"
        },
        {
          "internalType": "uint256",
          "name": "managerId",
          "type": "uint256"
        }
      ],
      "name": "isApprovedManagerById",
      "outputs": [
        {
          "internalType": "bool",
          "name": "",
          "type": "bool"
        }
      ],
      "stateMutability": "view",
      "type": "function"
    },
    {
      "inputs": [
        {
          "internalType": "address",
          "name": "provider",
          "type": "address"
        }
      ],
      "name": "isRegistered",
      "outputs": [
        {
          "internalType": "bool",
          "name": "",
          "type": "bool"
        }
      ],
      "stateMutability": "view",
      "type": "function"
    },
    {
      "inputs": [],
      "name": "manager",
      "outputs": [
        {
          "internalType": "contract IManager",
          "name": "",
          "type": "address"
        }
      ],
      "stateMutability": "view",
      "type": "function"
    },
    {
      "inputs": [
        {
          "internalType": "uint256",
          "name": "groupId",
          "type": "uint256"
        },
        {
          "internalType": "uint256",
          "name": "nullifier",
          "type": "uint256"
        }
      ],
      "name": "nullifiers",
      "outputs": [
        {
          "internalType": "bool",
          "name": "used",
          "type": "bool"
        }
      ],
      "stateMutability": "view",
      "type": "function"
    },
    {
      "inputs": [],
      "name": "register",
      "outputs": [
        {
          "internalType": "uint256",
          "name": "serviceProviderId",
          "type": "uint256"
        }
      ],
      "stateMutability": "nonpayable",
      "type": "function"
    },
    {
      "inputs": [
        {
          "internalType": "uint256",
          "name": "managerId",
          "type": "uint256"
        }
      ],
      "name": "removeApprovedManager",
      "outputs": [],
      "stateMutability": "nonpayable",
      "type": "function"
    },
    {
      "inputs": [
        {
          "internalType": "uint256",
          "name": "serviceProviderId",
          "type": "uint256"
        }
      ],
      "name": "serviceProviderAddresses",
      "outputs": [
        {
          "internalType": "address",
          "name": "provider",
          "type": "address"
        }
      ],
      "stateMutability": "view",
      "type": "function"
    },
    {
      "inputs": [],
      "name": "serviceProviderCounter",
      "outputs": [
        {
          "internalType": "uint256",
          "name": "",
          "type": "uint256"
        }
      ],
      "stateMutability": "view",
      "type": "function"
    },
    {
      "inputs": [
        {
          "internalType": "uint256",
          "name": "managerId",
          "type": "uint256"
        }
      ],
      "name": "setApprovedManager",
      "outputs": [],
      "stateMutability": "nonpayable",
      "type": "function"
    },
    {
      "inputs": [
        {
          "internalType": "uint256",
          "name": "serviceProviderId",
          "type": "uint256"
        },
        {
          "internalType": "uint256",
          "name": "accountId",
          "type": "uint256"
        }
      ],
      "name": "verifiedAccounts",
      "outputs": [
        {
          "internalType": "bool",
          "name": "isVerified",
          "type": "bool"
        }
      ],
      "stateMutability": "view",
      "type": "function"
    },
    {
      "inputs": [],
      "name": "verifier",
      "outputs": [
        {
          "internalType": "contract ISemaphoreVerifier",
          "name": "",
          "type": "address"
        }
      ],
      "stateMutability": "view",
      "type": "function"
    },
    {
      "inputs": [
        {
          "internalType": "uint256",
          "name": "groupId",
          "type": "uint256"
        },
        {
          "components": [
            {
              "internalType": "uint256",
              "name": "merkleTreeDepth",
              "type": "uint256"
            },
            {
              "internalType": "uint256",
              "name": "merkleTreeRoot",
              "type": "uint256"
            },
            {
              "internalType": "uint256",
              "name": "nullifier",
              "type": "uint256"
            },
            {
              "internalType": "uint256",
              "name": "message",
              "type": "uint256"
            },
            {
              "internalType": "uint256",
              "name": "scope",
              "type": "uint256"
            },
            {
              "internalType": "uint256[8]",
              "name": "points",
              "type": "uint256[8]"
            }
          ],
          "internalType": "struct IServiceProvider.SemaphoreProof",
          "name": "proof",
          "type": "tuple"
        }
      ],
      "name": "verifyAccount",
      "outputs": [],
      "stateMutability": "nonpayable",
      "type": "function"
    }
  ],
  "bytecode": "0x60c060405234801561001057600080fd5b5060405161208038038061208083398181016040528101906100329190610155565b61004c67db3419e470c6a09060c01b6100ef60201b60201c565b610066678c7c3f129ccf3a5160c01b6100ef60201b60201c565b8173ffffffffffffffffffffffffffffffffffffffff1660808173ffffffffffffffffffffffffffffffffffffffff16815250506100b4678749418f32d1ee2e60c01b6100ef60201b60201c565b8073ffffffffffffffffffffffffffffffffffffffff1660a08173ffffffffffffffffffffffffffffffffffffffff16815250505050610195565b50565b600080fd5b600073ffffffffffffffffffffffffffffffffffffffff82169050919050565b6000610122826100f7565b9050919050565b61013281610117565b811461013d57600080fd5b50565b60008151905061014f81610129565b92915050565b6000806040838503121561016c5761016b6100f2565b5b600061017a85828601610140565b925050602061018b85828601610140565b9150509250929050565b60805160a051611eb16101cf6000396000818161075201528181610abc0152610c0c0152600081816105cc0152610eba0152611eb16000f3fe608060405234801561001057600080fd5b50600436106100f55760003560e01c8063888da41011610097578063ef9244c211610066578063ef9244c2146102ac578063efdcd2de146102c8578063f03d5cc7146102f8578063fb155e8914610316576100f5565b8063888da41014610200578063a67a4cbb14610230578063c3c5a54714610260578063c920507b14610290576100f5565b806346a7190c116100d357806346a7190c14610166578063481c6a75146101965780635146a775146101b457806378d3915c146101d0576100f5565b80631aa3a008146100fa5780632b7ac3f31461011857806332d8bd3014610136575b600080fd5b610102610346565b60405161010f91906116d9565b60405180910390f35b6101206105ca565b60405161012d9190611773565b60405180910390f35b610150600480360381019061014b91906117bf565b6105ee565b60405161015d919061181a565b60405180910390f35b610180600480360381019061017b9190611873565b6106c8565b60405161018d91906116d9565b60405180910390f35b61019e610750565b6040516101ab91906118c1565b60405180910390f35b6101ce60048036038101906101c991906118dc565b610774565b005b6101ea60048036038101906101e591906117bf565b610945565b6040516101f7919061181a565b60405180910390f35b61021a6004803603810190610215919061192e565b610974565b604051610227919061181a565b60405180910390f35b61024a6004803603810190610245919061196f565b6110e2565b604051610257919061181a565b60405180910390f35b61027a60048036038101906102759190611873565b611189565b604051610287919061181a565b60405180910390f35b6102aa60048036038101906102a5919061192e565b61121e565b005b6102c660048036038101906102c191906118dc565b611407565b005b6102e260048036038101906102dd91906117bf565b6115d7565b6040516102ef919061181a565b60405180910390f35b610300611606565b60405161030d91906116d9565b60405180910390f35b610330600480360381019061032b91906118dc565b61160c565b60405161033d91906119be565b60405180910390f35b600061035c67e43a29a47b65dec260c01b61163f565b61037067f03985fb4fad890260c01b61163f565b610384671e612b10f626c85e60c01b61163f565b61038d33611189565b156103ec576103a667512a962bbcdf534b60c01b61163f565b6103ba67c978ab2aa03d14a560c01b61163f565b6040517feb56e80800000000000000000000000000000000000000000000000000000000815260040160405180910390fd5b61040067a9f23878f374330860c01b61163f565b610414677458d4c30f93591260c01b61163f565b60008081548092919061042690611a08565b9190505590506104406758c9de71c8905f2860c01b61163f565b60018060003373ffffffffffffffffffffffffffffffffffffffff1673ffffffffffffffffffffffffffffffffffffffff16815260200190815260200160002060000160006101000a81548160ff0219169083151502179055506104ae671f1e1c111ba9065060c01b61163f565b80600160003373ffffffffffffffffffffffffffffffffffffffff1673ffffffffffffffffffffffffffffffffffffffff168152602001908152602001600020600101819055506105096724b1165e6f44cbfa60c01b61163f565b336002600083815260200190815260200160002060006101000a81548173ffffffffffffffffffffffffffffffffffffffff021916908373ffffffffffffffffffffffffffffffffffffffff16021790555061056f6754e6ad5af6a9f26e60c01b61163f565b61058367bc5af4171b22154060c01b61163f565b3373ffffffffffffffffffffffffffffffffffffffff16817fbac49a713288ea78b9a5bc5d3851eeb27f29c68b5165d15f1700c6950b36e7f360405160405180910390a390565b7f000000000000000000000000000000000000000000000000000000000000000081565b6000610604678552bada736808fd60c01b61163f565b61061867117b17e5dfba6df060c01b61163f565b61062c67512ec1bcb376194c60c01b61163f565b600160006002600086815260200190815260200160002060009054906101000a900473ffffffffffffffffffffffffffffffffffffffff1673ffffffffffffffffffffffffffffffffffffffff1673ffffffffffffffffffffffffffffffffffffffff168152602001908152602001600020600201600083815260200190815260200160002060009054906101000a900460ff16905092915050565b60006106de67f3c0f01b248888e860c01b61163f565b6106f267fe4545a3a27cc12b60c01b61163f565b6107066723b6cd6b54da1cf260c01b61163f565b600160008373ffffffffffffffffffffffffffffffffffffffff1673ffffffffffffffffffffffffffffffffffffffff168152602001908152602001600020600101549050919050565b7f000000000000000000000000000000000000000000000000000000000000000081565b61078867337f6490580c275460c01b61163f565b61079c67b04337d499690bba60c01b61163f565b6107b0671985cd05885b790860c01b61163f565b6107c46720418a72eae0efb060c01b61163f565b600160003373ffffffffffffffffffffffffffffffffffffffff1673ffffffffffffffffffffffffffffffffffffffff16815260200190815260200160002060000160009054906101000a900460ff166108725761082c67c9ebb54fc19f06c560c01b61163f565b61084067c5306464c508958d60c01b61163f565b6040517ffa43867800000000000000000000000000000000000000000000000000000000815260040160405180910390fd5b61088667cd855470b47b82db60c01b61163f565b61089a6735126406d3ce2e5860c01b61163f565b6108ae6738942b9cde53063b60c01b61163f565b6108c2676da8318e34d952a060c01b61163f565b6108d667579c3cdc7df4e1c660c01b61163f565b6000600160003373ffffffffffffffffffffffffffffffffffffffff1673ffffffffffffffffffffffffffffffffffffffff168152602001908152602001600020600201600083815260200190815260200160002060006101000a81548160ff02191690831515021790555050565b60036020528160005260406000206020528060005260406000206000915091509054906101000a900460ff1681565b600061098a675dca345555927d1160c01b61163f565b61099e67162129eda6961d2860c01b61163f565b6109b267054dfc069555008460c01b61163f565b600160ff1682600001351080156109d957506109d8678b396ffc47d9a3fa60c01b611642565b5b80610a075750602060ff168260000135118015610a065750610a0567ec6d026bc78d1c8a60c01b611642565b5b5b15610a6657610a2067c01d557cdcfda0f060c01b61163f565b610a34670af69d1b65ad0c9760c01b61163f565b6040517fc2196fdc00000000000000000000000000000000000000000000000000000000815260040160405180910390fd5b610a7a670aacb299268135b160c01b61163f565b610a8e67921206934c10597060c01b61163f565b610aa2678269b6c102b70b1a60c01b61163f565b600073ffffffffffffffffffffffffffffffffffffffff167f000000000000000000000000000000000000000000000000000000000000000073ffffffffffffffffffffffffffffffffffffffff1663954a85b4856040518263ffffffff1660e01b8152600401610b1391906116d9565b602060405180830381865afa158015610b30573d6000803e3d6000fd5b505050506040513d601f19601f82011682018060405250810190610b549190611a65565b73ffffffffffffffffffffffffffffffffffffffff1603610bc957610b83674c1b5ba03888f0f160c01b61163f565b610b97673333f49b8f01aee860c01b61163f565b6040517f3e807fee00000000000000000000000000000000000000000000000000000000815260040160405180910390fd5b610bdd676d13179eef9cd56860c01b61163f565b610bf16761e65a186922d6f060c01b61163f565b610c05675bcef705248f5d9260c01b61163f565b81602001357f000000000000000000000000000000000000000000000000000000000000000073ffffffffffffffffffffffffffffffffffffffff1663dabc4d51856040518263ffffffff1660e01b8152600401610c6391906116d9565b602060405180830381865afa158015610c80573d6000803e3d6000fd5b505050506040513d601f19601f82011682018060405250810190610ca49190611aa7565b14610d0357610cbd6742d0b3dfb602c47f60c01b61163f565b610cd167514b5352319deec660c01b61163f565b6040517f68acbc1800000000000000000000000000000000000000000000000000000000815260040160405180910390fd5b610d1767f9e0c6a3e7cf7eab60c01b61163f565b610d2b6730b44a52fed2f27860c01b61163f565b610d3f679690b1725741e08b60c01b61163f565b610d4d8260800135846105ee565b610dab57610d6567e2c29d682d05ae4060c01b61163f565b610d7967fc18b4146843416b60c01b61163f565b6040517f1857f85900000000000000000000000000000000000000000000000000000000815260040160405180910390fd5b610dbf670c78f889cdf4d92160c01b61163f565b610dd367b85618242e9f321f60c01b61163f565b610de767fb3a2adb1a1557cb60c01b61163f565b6003600084815260200190815260200160002060008360400135815260200190815260200160002060009054906101000a900460ff1615610e7c57610e3667b28377705e82f5bf60c01b61163f565b610e4a671accc696f6ce26ab60c01b61163f565b6040517fb7d74ffd00000000000000000000000000000000000000000000000000000000815260040160405180910390fd5b610e9067a4db600013d4dbc160c01b61163f565b610ea467c5ab9dc6d170c99060c01b61163f565b610eb867b1954df1f29237cb60c01b61163f565b7f000000000000000000000000000000000000000000000000000000000000000073ffffffffffffffffffffffffffffffffffffffff1663a23f019960405180604001604052808560a001600060088110610f1657610f15611ad4565b5b602002013581526020018560a001600160088110610f3757610f36611ad4565b5b6020020135815250604051806040016040528060405180604001604052808860a001600260088110610f6c57610f6b611ad4565b5b602002013581526020018860a001600360088110610f8d57610f8c611ad4565b5b6020020135815250815260200160405180604001604052808860a001600460088110610fbc57610fbb611ad4565b5b602002013581526020018860a001600560088110610fdd57610fdc611ad4565b5b602002013581525081525060405180604001604052808760a00160066008811061100a57611009611ad4565b5b602002013581526020018760a00160076008811061102b5761102a611ad4565b5b60200201358152506040518060800160405280886020013581526020018860400135815260200161105f896060013561164d565b8152602001611071896080013561164d565b81525087600001356040518663ffffffff1660e01b8152600401611099959493929190611d30565b602060405180830381865afa1580156110b6573d6000803e3d6000fd5b505050506040513d601f19601f820116820180604052508101906110da9190611db2565b905092915050565b60006110f867bee7887d098c689060c01b61163f565b61110c6749122cf101f2a6b160c01b61163f565b61112067f0c2611bc2b2d69860c01b61163f565b600160008473ffffffffffffffffffffffffffffffffffffffff1673ffffffffffffffffffffffffffffffffffffffff168152602001908152602001600020600201600083815260200190815260200160002060009054906101000a900460ff16905092915050565b600061119f670cade22fba92484260c01b61163f565b6111b367340f84399e65da6860c01b61163f565b6111c767cd1503d619abf80560c01b61163f565b600160008373ffffffffffffffffffffffffffffffffffffffff1673ffffffffffffffffffffffffffffffffffffffff16815260200190815260200160002060000160009054906101000a900460ff169050919050565b6112326729d5995569447a3160c01b61163f565b61124667a1948a7011a698aa60c01b61163f565b61125a67ae02e81d174f76b160c01b61163f565b6112648282610974565b6112c25761127c67e4b00bbe4853a61b60c01b61163f565b6112906747e1029b3dd853c560c01b61163f565b6040517faf845a6200000000000000000000000000000000000000000000000000000000815260040160405180910390fd5b6112d667de6f44edcb61980e60c01b61163f565b6112ea67a9bd5b5a1c61118a60c01b61163f565b60016003600084815260200190815260200160002060008360400135815260200190815260200160002060006101000a81548160ff02191690831515021790555061133f67af4191efda078b4760c01b61163f565b6001600460008360800135815260200190815260200160002060008360600135815260200190815260200160002060006101000a81548160ff0219169083151502179055506113986720ed6db0c8de21b360c01b61163f565b6113ac67181330264bca190860c01b61163f565b80602001358160000135837f04c94041821c0cd95c312cb58300044c1c4a13eab7488d7c289cc08786336b588460400135856060013586608001358760a0016040516113fb9493929190611df9565b60405180910390a45050565b61141b67576f3357d130251460c01b61163f565b61142f67b04337d499690bba60c01b61163f565b611443671985cd05885b790860c01b61163f565b6114576720418a72eae0efb060c01b61163f565b600160003373ffffffffffffffffffffffffffffffffffffffff1673ffffffffffffffffffffffffffffffffffffffff16815260200190815260200160002060000160009054906101000a900460ff16611505576114bf67c9ebb54fc19f06c560c01b61163f565b6114d367c5306464c508958d60c01b61163f565b6040517ffa43867800000000000000000000000000000000000000000000000000000000815260040160405180910390fd5b61151967cd855470b47b82db60c01b61163f565b61152d6735126406d3ce2e5860c01b61163f565b611541676420d7cc83fca91260c01b61163f565b61155567574d8153cfe1d44660c01b61163f565b6115696746b74a8a5a9d598860c01b61163f565b60018060003373ffffffffffffffffffffffffffffffffffffffff1673ffffffffffffffffffffffffffffffffffffffff168152602001908152602001600020600201600083815260200190815260200160002060006101000a81548160ff02191690831515021790555050565b60046020528160005260406000206020528060005260406000206000915091509054906101000a900460ff1681565b60005481565b60026020528060005260406000206000915054906101000a900473ffffffffffffffffffffffffffffffffffffffff1681565b50565b600060019050919050565b600061166367043a36dae251a0de60c01b61163f565b61167767ad326b0c69ef511a60c01b61163f565b61168b67ea0e8eaf2a08c36760c01b61163f565b60088260405160200161169e9190611e60565b6040516020818303038152906040528051906020012060001c901c9050919050565b6000819050919050565b6116d3816116c0565b82525050565b60006020820190506116ee60008301846116ca565b92915050565b600073ffffffffffffffffffffffffffffffffffffffff82169050919050565b6000819050919050565b600061173961173461172f846116f4565b611714565b6116f4565b9050919050565b600061174b8261171e565b9050919050565b600061175d82611740565b9050919050565b61176d81611752565b82525050565b60006020820190506117886000830184611764565b92915050565b600080fd5b61179c816116c0565b81146117a757600080fd5b50565b6000813590506117b981611793565b92915050565b600080604083850312156117d6576117d561178e565b5b60006117e4858286016117aa565b92505060206117f5858286016117aa565b9150509250929050565b60008115159050919050565b611814816117ff565b82525050565b600060208201905061182f600083018461180b565b92915050565b6000611840826116f4565b9050919050565b61185081611835565b811461185b57600080fd5b50565b60008135905061186d81611847565b92915050565b6000602082840312156118895761188861178e565b5b60006118978482850161185e565b91505092915050565b60006118ab82611740565b9050919050565b6118bb816118a0565b82525050565b60006020820190506118d660008301846118b2565b92915050565b6000602082840312156118f2576118f161178e565b5b6000611900848285016117aa565b91505092915050565b600080fd5b60006101a0828403121561192557611924611909565b5b81905092915050565b6000806101c083850312156119465761194561178e565b5b6000611954858286016117aa565b92505060206119658582860161190e565b9150509250929050565b600080604083850312156119865761198561178e565b5b60006119948582860161185e565b92505060206119a5858286016117aa565b9150509250929050565b6119b881611835565b82525050565b60006020820190506119d360008301846119af565b92915050565b7f4e487b7100000000000000000000000000000000000000000000000000000000600052601160045260246000fd5b6000611a13826116c0565b91507fffffffffffffffffffffffffffffffffffffffffffffffffffffffffffffffff8203611a4557611a446119d9565b5b600182019050919050565b600081519050611a5f81611847565b92915050565b600060208284031215611a7b57611a7a61178e565b5b6000611a8984828501611a50565b91505092915050565b600081519050611aa181611793565b92915050565b600060208284031215611abd57611abc61178e565b5b6000611acb84828501611a92565b91505092915050565b7f4e487b7100000000000000000000000000000000000000000000000000000000600052603260045260246000fd5b600060029050919050565b600081905092915050565b6000819050919050565b611b2c816116c0565b82525050565b6000611b3e8383611b23565b60208301905092915050565b6000602082019050919050565b611b6081611b03565b611b6a8184611b0e565b9250611b7582611b19565b8060005b83811015611ba6578151611b8d8782611b32565b9650611b9883611b4a565b925050600181019050611b79565b505050505050565b600060029050919050565b600081905092915050565b6000819050919050565b600081905092915050565b611be281611b03565b611bec8184611bce565b9250611bf782611b19565b8060005b83811015611c28578151611c0f8782611b32565b9650611c1a83611b4a565b925050600181019050611bfb565b505050505050565b6000611c3c8383611bd9565b60408301905092915050565b6000602082019050919050565b611c5e81611bae565b611c688184611bb9565b9250611c7382611bc4565b8060005b83811015611ca4578151611c8b8782611c30565b9650611c9683611c48565b925050600181019050611c77565b505050505050565b600060049050919050565b600081905092915050565b6000819050919050565b6000602082019050919050565b611ce281611cac565b611cec8184611cb7565b9250611cf782611cc2565b8060005b83811015611d28578151611d0f8782611b32565b9650611d1a83611ccc565b925050600181019050611cfb565b505050505050565b60006101a082019050611d466000830188611b57565b611d536040830187611c55565b611d6060c0830186611b57565b611d6e610100830185611cd9565b611d7c6101808301846116ca565b9695505050505050565b611d8f816117ff565b8114611d9a57600080fd5b50565b600081519050611dac81611d86565b92915050565b600060208284031215611dc857611dc761178e565b5b6000611dd684828501611d9d565b91505092915050565b82818337505050565b611df56101008383611ddf565b5050565b600061016082019050611e0f60008301876116ca565b611e1c60208301866116ca565b611e2960408301856116ca565b611e366060830184611de8565b95945050505050565b6000819050919050565b611e5a611e55826116c0565b611e3f565b82525050565b6000611e6c8284611e49565b6020820191508190509291505056fea2646970667358221220ce4052919cf78a336a51965d58cfe0eff473faff4bb8dfe6064c62fdd082e9d964736f6c634300081c0033",
  "linkReferences": {},
  "deployedLinkReferences": {}
}