{
  "_format": "hh-sol-artifact-1",
  "contractName": "ServiceProvider",
  "sourceName": "contracts/ServiceProvider.sol",
  "abi": [
    {
      "inputs": [
        {
          "internalType": "address",
          "name": "_verifier",
          "type": "address"
        },
        {
          "internalType": "address",
          "name": "_manager",
          "type": "address"
        }
      ],
      "stateMutability": "nonpayable",
      "type": "constructor"
    },
    {
      "inputs": [],
      "name": "ServiceProvider__AlreadyRegistered",
      "type": "error"
    },
    {
      "inputs": [],
      "name": "ServiceProvider__FeeTransferFailed",
      "type": "error"
    },
    {
      "inputs": [],
      "name": "ServiceProvider__GroupDoesNotExist",
      "type": "error"
    },
    {
      "inputs": [],
      "name": "ServiceProvider__InsufficientFee",
      "type": "error"
    },
    {
      "inputs": [],
      "name": "ServiceProvider__InvalidMerkleTreeDepth",
      "type": "error"
    },
    {
      "inputs": [],
      "name": "ServiceProvider__InvalidProof",
      "type": "error"
    },
    {
      "inputs": [],
      "name": "ServiceProvider__InvalidTreeRoot",
      "type": "error"
    },
    {
      "inputs": [],
      "name": "ServiceProvider__ManagerAlreadyApproved",
      "type": "error"
    },
    {
      "inputs": [],
      "name": "ServiceProvider__ManagerNotApproved",
      "type": "error"
    },
    {
      "inputs": [],
      "name": "ServiceProvider__NotRegistered",
      "type": "error"
    },
    {
      "inputs": [],
      "name": "ServiceProvider__NullifierAlreadyUsed",
      "type": "error"
    },
    {
      "anonymous": false,
      "inputs": [
        {
          "indexed": true,
          "internalType": "uint256",
          "name": "groupId",
          "type": "uint256"
        },
        {
          "indexed": true,
          "internalType": "uint256",
          "name": "merkleTreeDepth",
          "type": "uint256"
        },
        {
          "indexed": true,
          "internalType": "uint256",
          "name": "merkleTreeRoot",
          "type": "uint256"
        },
        {
          "indexed": false,
          "internalType": "uint256",
          "name": "nullifier",
          "type": "uint256"
        },
        {
          "indexed": false,
          "internalType": "uint256",
          "name": "message",
          "type": "uint256"
        },
        {
          "indexed": false,
          "internalType": "uint256",
          "name": "scope",
          "type": "uint256"
        },
        {
          "indexed": false,
          "internalType": "uint256[8]",
          "name": "points",
          "type": "uint256[8]"
        }
      ],
      "name": "AccountVerified",
      "type": "event"
    },
    {
      "anonymous": false,
      "inputs": [
        {
          "indexed": true,
          "internalType": "address",
          "name": "provider",
          "type": "address"
        },
        {
          "indexed": true,
          "internalType": "uint256",
          "name": "groupId",
          "type": "uint256"
        }
      ],
      "name": "ManagerApproved",
      "type": "event"
    },
    {
      "anonymous": false,
      "inputs": [
        {
          "indexed": true,
          "internalType": "uint256",
          "name": "serviceProviderId",
          "type": "uint256"
        },
        {
          "indexed": true,
          "internalType": "address",
          "name": "provider",
          "type": "address"
        }
      ],
      "name": "ServiceProviderRegistered",
      "type": "event"
    },
    {
      "inputs": [
        {
          "internalType": "uint256",
          "name": "groupId",
          "type": "uint256"
        },
        {
          "components": [
            {
              "internalType": "uint256",
              "name": "merkleTreeDepth",
              "type": "uint256"
            },
            {
              "internalType": "uint256",
              "name": "merkleTreeRoot",
              "type": "uint256"
            },
            {
              "internalType": "uint256",
              "name": "nullifier",
              "type": "uint256"
            },
            {
              "internalType": "uint256",
              "name": "message",
              "type": "uint256"
            },
            {
              "internalType": "uint256",
              "name": "scope",
              "type": "uint256"
            },
            {
              "internalType": "uint256[8]",
              "name": "points",
              "type": "uint256[8]"
            }
          ],
          "internalType": "struct IServiceProvider.SemaphoreProof",
          "name": "proof",
          "type": "tuple"
        }
      ],
      "name": "checkProof",
      "outputs": [
        {
          "internalType": "bool",
          "name": "",
          "type": "bool"
        }
      ],
      "stateMutability": "view",
      "type": "function"
    },
    {
      "inputs": [
        {
          "internalType": "address",
          "name": "provider",
          "type": "address"
        }
      ],
      "name": "getServiceProviderId",
      "outputs": [
        {
          "internalType": "uint256",
          "name": "",
          "type": "uint256"
        }
      ],
      "stateMutability": "view",
      "type": "function"
    },
    {
      "inputs": [
        {
          "internalType": "address",
          "name": "provider",
          "type": "address"
        },
        {
          "internalType": "uint256",
          "name": "managerId",
          "type": "uint256"
        }
      ],
      "name": "isApprovedManager",
      "outputs": [
        {
          "internalType": "bool",
          "name": "",
          "type": "bool"
        }
      ],
      "stateMutability": "view",
      "type": "function"
    },
    {
      "inputs": [
        {
          "internalType": "uint256",
          "name": "serviceProviderId",
          "type": "uint256"
        },
        {
          "internalType": "uint256",
          "name": "managerId",
          "type": "uint256"
        }
      ],
      "name": "isApprovedManagerById",
      "outputs": [
        {
          "internalType": "bool",
          "name": "",
          "type": "bool"
        }
      ],
      "stateMutability": "view",
      "type": "function"
    },
    {
      "inputs": [
        {
          "internalType": "address",
          "name": "provider",
          "type": "address"
        }
      ],
      "name": "isRegistered",
      "outputs": [
        {
          "internalType": "bool",
          "name": "",
          "type": "bool"
        }
      ],
      "stateMutability": "view",
      "type": "function"
    },
    {
      "inputs": [],
      "name": "manager",
      "outputs": [
        {
          "internalType": "contract IManager",
          "name": "",
          "type": "address"
        }
      ],
      "stateMutability": "view",
      "type": "function"
    },
    {
      "inputs": [
        {
          "internalType": "uint256",
          "name": "groupId",
          "type": "uint256"
        },
        {
          "internalType": "uint256",
          "name": "nullifier",
          "type": "uint256"
        }
      ],
      "name": "nullifiers",
      "outputs": [
        {
          "internalType": "bool",
          "name": "used",
          "type": "bool"
        }
      ],
      "stateMutability": "view",
      "type": "function"
    },
    {
      "inputs": [],
      "name": "register",
      "outputs": [
        {
          "internalType": "uint256",
          "name": "serviceProviderId",
          "type": "uint256"
        }
      ],
      "stateMutability": "nonpayable",
      "type": "function"
    },
    {
      "inputs": [
        {
          "internalType": "uint256",
          "name": "managerId",
          "type": "uint256"
        }
      ],
      "name": "removeApprovedManager",
      "outputs": [],
      "stateMutability": "nonpayable",
      "type": "function"
    },
    {
      "inputs": [
        {
          "internalType": "uint256",
          "name": "serviceProviderId",
          "type": "uint256"
        }
      ],
      "name": "serviceProviderAddresses",
      "outputs": [
        {
          "internalType": "address",
          "name": "provider",
          "type": "address"
        }
      ],
      "stateMutability": "view",
      "type": "function"
    },
    {
      "inputs": [],
      "name": "serviceProviderCounter",
      "outputs": [
        {
          "internalType": "uint256",
          "name": "",
          "type": "uint256"
        }
      ],
      "stateMutability": "view",
      "type": "function"
    },
    {
      "inputs": [
        {
          "internalType": "uint256",
          "name": "groupId",
          "type": "uint256"
        }
      ],
      "name": "setApprovedManager",
      "outputs": [],
      "stateMutability": "payable",
      "type": "function"
    },
    {
      "inputs": [
        {
          "internalType": "uint256",
          "name": "serviceProviderId",
          "type": "uint256"
        },
        {
          "internalType": "uint256",
          "name": "accountId",
          "type": "uint256"
        }
      ],
      "name": "verifiedAccounts",
      "outputs": [
        {
          "internalType": "bool",
          "name": "isVerified",
          "type": "bool"
        }
      ],
      "stateMutability": "view",
      "type": "function"
    },
    {
      "inputs": [],
      "name": "verifier",
      "outputs": [
        {
          "internalType": "contract ISemaphoreVerifier",
          "name": "",
          "type": "address"
        }
      ],
      "stateMutability": "view",
      "type": "function"
    },
    {
      "inputs": [
        {
          "internalType": "uint256",
          "name": "groupId",
          "type": "uint256"
        },
        {
          "components": [
            {
              "internalType": "uint256",
              "name": "merkleTreeDepth",
              "type": "uint256"
            },
            {
              "internalType": "uint256",
              "name": "merkleTreeRoot",
              "type": "uint256"
            },
            {
              "internalType": "uint256",
              "name": "nullifier",
              "type": "uint256"
            },
            {
              "internalType": "uint256",
              "name": "message",
              "type": "uint256"
            },
            {
              "internalType": "uint256",
              "name": "scope",
              "type": "uint256"
            },
            {
              "internalType": "uint256[8]",
              "name": "points",
              "type": "uint256[8]"
            }
          ],
          "internalType": "struct IServiceProvider.SemaphoreProof",
          "name": "proof",
          "type": "tuple"
        }
      ],
      "name": "verifyAccount",
      "outputs": [],
      "stateMutability": "nonpayable",
      "type": "function"
    }
  ],
  "bytecode": "0x60c060405234801561001057600080fd5b50604051611ca2380380611ca283398181016040528101906100329190610104565b8173ffffffffffffffffffffffffffffffffffffffff1660808173ffffffffffffffffffffffffffffffffffffffff16815250508073ffffffffffffffffffffffffffffffffffffffff1660a08173ffffffffffffffffffffffffffffffffffffffff16815250505050610144565b600080fd5b600073ffffffffffffffffffffffffffffffffffffffff82169050919050565b60006100d1826100a6565b9050919050565b6100e1816100c6565b81146100ec57600080fd5b50565b6000815190506100fe816100d8565b92915050565b6000806040838503121561011b5761011a6100a1565b5b6000610129858286016100ef565b925050602061013a858286016100ef565b9150509250929050565b60805160a051611b1661018c60003960008181610637015281816107e3015281816108cf01528181610f6c01526110440152600081816105290152610a510152611b166000f3fe6080604052600436106100e85760003560e01c8063888da4101161008a578063ef9244c211610059578063ef9244c21461032e578063efdcd2de1461034a578063f03d5cc714610387578063fb155e89146103b2576100e8565b8063888da4101461024e578063a67a4cbb1461028b578063c3c5a547146102c8578063c920507b14610305576100e8565b806346a7190c116100c657806346a7190c14610180578063481c6a75146101bd5780635146a775146101e857806378d3915c14610211576100e8565b80631aa3a008146100ed5780632b7ac3f31461011857806332d8bd3014610143575b600080fd5b3480156100f957600080fd5b506101026103ef565b60405161010f91906112f8565b60405180910390f35b34801561012457600080fd5b5061012d610527565b60405161013a9190611392565b60405180910390f35b34801561014f57600080fd5b5061016a600480360381019061016591906113de565b61054b565b6040516101779190611439565b60405180910390f35b34801561018c57600080fd5b506101a760048036038101906101a29190611492565b6105e9565b6040516101b491906112f8565b60405180910390f35b3480156101c957600080fd5b506101d2610635565b6040516101df91906114e0565b60405180910390f35b3480156101f457600080fd5b5061020f600480360381019061020a91906114fb565b610659565b005b34801561021d57600080fd5b50610238600480360381019061023391906113de565b610744565b6040516102459190611439565b60405180910390f35b34801561025a57600080fd5b506102756004803603810190610270919061154d565b610773565b6040516102829190611439565b60405180910390f35b34801561029757600080fd5b506102b260048036038101906102ad919061158e565b610c79565b6040516102bf9190611439565b60405180910390f35b3480156102d457600080fd5b506102ef60048036038101906102ea9190611492565b610ce4565b6040516102fc9190611439565b60405180910390f35b34801561031157600080fd5b5061032c6004803603810190610327919061154d565b610d33565b005b610348600480360381019061034391906114fb565b610e54565b005b34801561035657600080fd5b50610371600480360381019061036c91906113de565b611240565b60405161037e9190611439565b60405180910390f35b34801561039357600080fd5b5061039c61126f565b6040516103a991906112f8565b60405180910390f35b3480156103be57600080fd5b506103d960048036038101906103d491906114fb565b611275565b6040516103e691906115dd565b60405180910390f35b60006103fa33610ce4565b15610431576040517feb56e80800000000000000000000000000000000000000000000000000000000815260040160405180910390fd5b600080815461043f90611627565b919050819055905080600160003373ffffffffffffffffffffffffffffffffffffffff1673ffffffffffffffffffffffffffffffffffffffff16815260200190815260200160002060000181905550336002600083815260200190815260200160002060006101000a81548173ffffffffffffffffffffffffffffffffffffffff021916908373ffffffffffffffffffffffffffffffffffffffff1602179055503373ffffffffffffffffffffffffffffffffffffffff16817fbac49a713288ea78b9a5bc5d3851eeb27f29c68b5165d15f1700c6950b36e7f360405160405180910390a390565b7f000000000000000000000000000000000000000000000000000000000000000081565b6000600160006002600086815260200190815260200160002060009054906101000a900473ffffffffffffffffffffffffffffffffffffffff1673ffffffffffffffffffffffffffffffffffffffff1673ffffffffffffffffffffffffffffffffffffffff168152602001908152602001600020600101600083815260200190815260200160002060009054906101000a900460ff16905092915050565b6000600160008373ffffffffffffffffffffffffffffffffffffffff1673ffffffffffffffffffffffffffffffffffffffff168152602001908152602001600020600001549050919050565b7f000000000000000000000000000000000000000000000000000000000000000081565b6000600160003373ffffffffffffffffffffffffffffffffffffffff1673ffffffffffffffffffffffffffffffffffffffff16815260200190815260200160002060000154036106d5576040517ffa43867800000000000000000000000000000000000000000000000000000000815260040160405180910390fd5b6000600160003373ffffffffffffffffffffffffffffffffffffffff1673ffffffffffffffffffffffffffffffffffffffff168152602001908152602001600020600101600083815260200190815260200160002060006101000a81548160ff02191690831515021790555050565b60036020528160005260406000206020528060005260406000206000915091509054906101000a900460ff1681565b6000600160ff16826000013510806107925750602060ff168260000135115b156107c9576040517fc2196fdc00000000000000000000000000000000000000000000000000000000815260040160405180910390fd5b600073ffffffffffffffffffffffffffffffffffffffff167f000000000000000000000000000000000000000000000000000000000000000073ffffffffffffffffffffffffffffffffffffffff1663aac80472856040518263ffffffff1660e01b815260040161083a91906112f8565b602060405180830381865afa158015610857573d6000803e3d6000fd5b505050506040513d601f19601f8201168201806040525081019061087b9190611684565b73ffffffffffffffffffffffffffffffffffffffff16036108c8576040517f3e807fee00000000000000000000000000000000000000000000000000000000815260040160405180910390fd5b81602001357f000000000000000000000000000000000000000000000000000000000000000073ffffffffffffffffffffffffffffffffffffffff1663dabc4d51856040518263ffffffff1660e01b815260040161092691906112f8565b602060405180830381865afa158015610943573d6000803e3d6000fd5b505050506040513d601f19601f8201168201806040525081019061096791906116c6565b1461099e576040517f68acbc1800000000000000000000000000000000000000000000000000000000815260040160405180910390fd5b6109ac82608001358461054b565b6109e2576040517f1857f85900000000000000000000000000000000000000000000000000000000815260040160405180910390fd5b6003600084815260200190815260200160002060008360400135815260200190815260200160002060009054906101000a900460ff1615610a4f576040517fb7d74ffd00000000000000000000000000000000000000000000000000000000815260040160405180910390fd5b7f000000000000000000000000000000000000000000000000000000000000000073ffffffffffffffffffffffffffffffffffffffff1663a23f019960405180604001604052808560a001600060088110610aad57610aac6116f3565b5b602002013581526020018560a001600160088110610ace57610acd6116f3565b5b6020020135815250604051806040016040528060405180604001604052808860a001600260088110610b0357610b026116f3565b5b602002013581526020018860a001600360088110610b2457610b236116f3565b5b6020020135815250815260200160405180604001604052808860a001600460088110610b5357610b526116f3565b5b602002013581526020018860a001600560088110610b7457610b736116f3565b5b602002013581525081525060405180604001604052808760a001600660088110610ba157610ba06116f3565b5b602002013581526020018760a001600760088110610bc257610bc16116f3565b5b602002013581525060405180608001604052808860200135815260200188604001358152602001610bf689606001356112a8565b8152602001610c0889608001356112a8565b81525087600001356040518663ffffffff1660e01b8152600401610c3095949392919061194f565b602060405180830381865afa158015610c4d573d6000803e3d6000fd5b505050506040513d601f19601f82011682018060405250810190610c7191906119d1565b905092915050565b6000600160008473ffffffffffffffffffffffffffffffffffffffff1673ffffffffffffffffffffffffffffffffffffffff168152602001908152602001600020600101600083815260200190815260200160002060009054906101000a900460ff16905092915050565b600080600160008473ffffffffffffffffffffffffffffffffffffffff1673ffffffffffffffffffffffffffffffffffffffff1681526020019081526020016000206000015414159050919050565b610d3d8282610773565b610d73576040517faf845a6200000000000000000000000000000000000000000000000000000000815260040160405180910390fd5b60016003600084815260200190815260200160002060008360400135815260200190815260200160002060006101000a81548160ff0219169083151502179055506001600460008360800135815260200190815260200160002060008360600135815260200190815260200160002060006101000a81548160ff02191690831515021790555080602001358160000135837f04c94041821c0cd95c312cb58300044c1c4a13eab7488d7c289cc08786336b588460400135856060013586608001358760a001604051610e489493929190611a18565b60405180910390a45050565b6000600160003373ffffffffffffffffffffffffffffffffffffffff1673ffffffffffffffffffffffffffffffffffffffff1681526020019081526020016000206000015403610ed0576040517ffa43867800000000000000000000000000000000000000000000000000000000815260040160405180910390fd5b600160003373ffffffffffffffffffffffffffffffffffffffff1673ffffffffffffffffffffffffffffffffffffffff168152602001908152602001600020600101600082815260200190815260200160002060009054906101000a900460ff1615610f68576040517fbaab082800000000000000000000000000000000000000000000000000000000815260040160405180910390fd5b60007f000000000000000000000000000000000000000000000000000000000000000073ffffffffffffffffffffffffffffffffffffffff16630c8c7900836040518263ffffffff1660e01b8152600401610fc391906112f8565b602060405180830381865afa158015610fe0573d6000803e3d6000fd5b505050506040513d601f19601f8201168201806040525081019061100491906116c6565b905080341015611040576040517f543ead0100000000000000000000000000000000000000000000000000000000815260040160405180910390fd5b60007f000000000000000000000000000000000000000000000000000000000000000073ffffffffffffffffffffffffffffffffffffffff1663aac80472846040518263ffffffff1660e01b815260040161109b91906112f8565b602060405180830381865afa1580156110b8573d6000803e3d6000fd5b505050506040513d601f19601f820116820180604052508101906110dc9190611684565b9050600082111561118c5760008173ffffffffffffffffffffffffffffffffffffffff163460405161110d90611a8f565b60006040518083038185875af1925050503d806000811461114a576040519150601f19603f3d011682016040523d82523d6000602084013e61114f565b606091505b505090508061118a576040517fe0304cc800000000000000000000000000000000000000000000000000000000815260040160405180910390fd5b505b60018060003373ffffffffffffffffffffffffffffffffffffffff1673ffffffffffffffffffffffffffffffffffffffff168152602001908152602001600020600101600085815260200190815260200160002060006101000a81548160ff021916908315150217905550823373ffffffffffffffffffffffffffffffffffffffff167f811bb6532ea03d1d1bc217f71996a87ef9bf49c34895b8aeaa50afd73a32f3b060405160405180910390a3505050565b60046020528160005260406000206020528060005260406000206000915091509054906101000a900460ff1681565b60005481565b60026020528060005260406000206000915054906101000a900473ffffffffffffffffffffffffffffffffffffffff1681565b60006008826040516020016112bd9190611ac5565b6040516020818303038152906040528051906020012060001c901c9050919050565b6000819050919050565b6112f2816112df565b82525050565b600060208201905061130d60008301846112e9565b92915050565b600073ffffffffffffffffffffffffffffffffffffffff82169050919050565b6000819050919050565b600061135861135361134e84611313565b611333565b611313565b9050919050565b600061136a8261133d565b9050919050565b600061137c8261135f565b9050919050565b61138c81611371565b82525050565b60006020820190506113a76000830184611383565b92915050565b600080fd5b6113bb816112df565b81146113c657600080fd5b50565b6000813590506113d8816113b2565b92915050565b600080604083850312156113f5576113f46113ad565b5b6000611403858286016113c9565b9250506020611414858286016113c9565b9150509250929050565b60008115159050919050565b6114338161141e565b82525050565b600060208201905061144e600083018461142a565b92915050565b600061145f82611313565b9050919050565b61146f81611454565b811461147a57600080fd5b50565b60008135905061148c81611466565b92915050565b6000602082840312156114a8576114a76113ad565b5b60006114b68482850161147d565b91505092915050565b60006114ca8261135f565b9050919050565b6114da816114bf565b82525050565b60006020820190506114f560008301846114d1565b92915050565b600060208284031215611511576115106113ad565b5b600061151f848285016113c9565b91505092915050565b600080fd5b60006101a0828403121561154457611543611528565b5b81905092915050565b6000806101c08385031215611565576115646113ad565b5b6000611573858286016113c9565b92505060206115848582860161152d565b9150509250929050565b600080604083850312156115a5576115a46113ad565b5b60006115b38582860161147d565b92505060206115c4858286016113c9565b9150509250929050565b6115d781611454565b82525050565b60006020820190506115f260008301846115ce565b92915050565b7f4e487b7100000000000000000000000000000000000000000000000000000000600052601160045260246000fd5b6000611632826112df565b91507fffffffffffffffffffffffffffffffffffffffffffffffffffffffffffffffff8203611664576116636115f8565b5b600182019050919050565b60008151905061167e81611466565b92915050565b60006020828403121561169a576116996113ad565b5b60006116a88482850161166f565b91505092915050565b6000815190506116c0816113b2565b92915050565b6000602082840312156116dc576116db6113ad565b5b60006116ea848285016116b1565b91505092915050565b7f4e487b7100000000000000000000000000000000000000000000000000000000600052603260045260246000fd5b600060029050919050565b600081905092915050565b6000819050919050565b61174b816112df565b82525050565b600061175d8383611742565b60208301905092915050565b6000602082019050919050565b61177f81611722565b611789818461172d565b925061179482611738565b8060005b838110156117c55781516117ac8782611751565b96506117b783611769565b925050600181019050611798565b505050505050565b600060029050919050565b600081905092915050565b6000819050919050565b600081905092915050565b61180181611722565b61180b81846117ed565b925061181682611738565b8060005b8381101561184757815161182e8782611751565b965061183983611769565b92505060018101905061181a565b505050505050565b600061185b83836117f8565b60408301905092915050565b6000602082019050919050565b61187d816117cd565b61188781846117d8565b9250611892826117e3565b8060005b838110156118c35781516118aa878261184f565b96506118b583611867565b925050600181019050611896565b505050505050565b600060049050919050565b600081905092915050565b6000819050919050565b6000602082019050919050565b611901816118cb565b61190b81846118d6565b9250611916826118e1565b8060005b8381101561194757815161192e8782611751565b9650611939836118eb565b92505060018101905061191a565b505050505050565b60006101a0820190506119656000830188611776565b6119726040830187611874565b61197f60c0830186611776565b61198d6101008301856118f8565b61199b6101808301846112e9565b9695505050505050565b6119ae8161141e565b81146119b957600080fd5b50565b6000815190506119cb816119a5565b92915050565b6000602082840312156119e7576119e66113ad565b5b60006119f5848285016119bc565b91505092915050565b82818337505050565b611a1461010083836119fe565b5050565b600061016082019050611a2e60008301876112e9565b611a3b60208301866112e9565b611a4860408301856112e9565b611a556060830184611a07565b95945050505050565b600081905092915050565b50565b6000611a79600083611a5e565b9150611a8482611a69565b600082019050919050565b6000611a9a82611a6c565b9150819050919050565b6000819050919050565b611abf611aba826112df565b611aa4565b82525050565b6000611ad18284611aae565b6020820191508190509291505056fea264697066735822122077558b7bb1b18dd145e38f1cc00341e7db05b8361309e9d10452beaffe53905064736f6c634300081c0033",
  "linkReferences": {},
  "deployedLinkReferences": {}
}